:10000000A82E0020F927000031260000F527000067
:10001000F5270000F5270000F5270000F527000070
:10002000000000000000000000000000F5270000B4
:10003000F527000000000000F5270000F52700006C
:10004000011100007510000091110000D91100008D
:100050006D1F00000121000021220000012300008B
:100060005D1900005D190000CD1900000348044B24
:10007000834202D0034B03B118477047940300201A
:100080009403002000000000064B0749C91A89109C
:1000900048BF0131491003D0044B0BB10148184748
:1000A000704700BF9403002094030020000000006C
:1000B00010B5064C237843B9FFF7D8FF044B13B1B2
:1000C0000448AFF300800123237010BDB00300206B
:1000D00000000000947E000008B5054B1BB10549E7
:1000E0000548AFF30080BDE80840FFF7CDBF00BF73
:1000F00000000000B4030020947E00000379022B6E
:1001000002D10122014B1A70704700BFCE030020BC
:100110002DE9F047B2F1000982B019DD8A460025C9
:10012000DFF83C800C4C0D4F01EB09061AF9013B3E
:100130000122384601A9019300F078FDC8F80000BB
:1001400000B100BE2378002BFCD056452570EDD1C0
:10015000484602B0BDE8F087CE0300205C080020CE
:10016000D00300200122034B1A7008B102791A70E3
:10017000704700BF5C0000200378022B04D013B945
:100180000122034B1A7070470122024B1A7070470C
:10019000CC030020CD0300202DE9F04F9A499B4865
:1001A00093B000F08DFD9A4D2860002840F0258125
:1001B0000B229849954800F039FD2860002840F04E
:1001C0001481954A1378002BFCD0002393481370B8
:1001D00003F00AF99249934801F08EFE0446286024
:1001E000002840F00481012700F090FC00F034FA70
:1001F000204600F09DF9204600F0A6F900F02CFA08
:100200001023224621462046009700F077FB10235A
:100210003A4618462146009700F070FB1023022250
:1002200020202146009400F069FB10230322302097
:100230002146009400F062FB7B4E102304224020F4
:100240002146009400F05AFB00F098F91023542046
:100250002146764A009700F0DDFA00F08FF913236B
:10026000752220212046CDE9006700F0CFFB00F089
:1002700085F94FF47A71C82002F0AEF96C496D48E7
:1002800001F050F82860002840F0A980694801F08A
:100290008FF86949674801F08BF90E21654801F034
:1002A00021FA6649634801F05BFA654803F09CF85F
:1002B000644803F099F8DFF8AC91DFF8AC810DE009
:1002C00098F800302BB100235F4888F8003003F025
:1002D0008BF84FF47A71012002F07EF999F8003022
:1002E000002BEDD00C244FF0000B09A9514801F070
:1002F00065F89DF82C30BDF838609DF834509DF8B5
:1003000028109DF824209DF830A0059300939DF8B7
:100310003C3006F26C7601350792029206912A462D
:100320000191039331465346484889F800B002F0E2
:10033000F3FF3246584604231021CDE9004700F070
:100340008FFA234610211820414A009700F062FAE4
:100350002A46022310211E20CDE9004700F080FA32
:10036000234610212A203A4A009700F053FA5246B9
:10037000022310213020CDE9004700F071FA234616
:1003800010213C20324A009700F044FA059A0223DB
:1003900010214220CDE9004700F062FA23461021E7
:1003A0004E202B4A009700F035FA069A02231021BE
:1003B0005420CDE9004700F053FA23461021602075
:1003C000234A009700F026FA022310216620079A9C
:1003D000CDE9004700F044FA00F0D0F870E7B4210E
:1003E0001C4B1D4A1D4802F0EFF800BEE9E64D2106
:1003F000184B1B4A194802F0E7F84221154B184ADE
:10040000164802F0E1F800BF187A00005C080020EE
:10041000D0030020B45B0000CE030020C05B0000CE
:100420004C7A00008C08002060000020D05B0000A7
:100430007C7A0000CC08002034000020000000205E
:10044000D85B0000F45B0000305C0000045C00003E
:100450002C5C00008C5B00009C5C0000A05B00003A
:10046000885C0000CD030020CC030020022800D0CF
:1004700070470249024801F08BBB00BFA47A00001C
:100480005408002070B5224E04460D4601223C213E
:10049000204882B001F086FB336863BBADF80430BE
:1004A0002DBB012302221B4801A98DF8054001F054
:1004B00027FC306028BB184D184C2A78032A10D02E
:1004C000236809E00121642002F086F823682A7875
:1004D000013B032A236004D0002BF3DC012A00D166
:1004E00000BE01230E4A2B70226002B070BD402373
:1004F0008DF80430D5E766210A4B0B4A0B4802F011
:1005000063F86F21074B084A084802F05DF800BF06
:10051000D00300208C0800205C0000205800002040
:10052000A08601008C5B0000B85C0000785C0000D5
:1005300030B1012800D070470021A720FFF7A2BFEB
:100540000146A620FFF79EBF10B5044660B1012802
:1005500000D010BD0021C020FFF794FFBDE810407F
:100560000021A120FFF78EBF0146C820FFF78AFFB8
:100570002146BDE81040A020FFF784BF2DE9F047D9
:100580002D4E402334464FF00108A2B02B4D0836C3
:100590008DF80430C4F1B00738190021C0B2FFF75C
:1005A00071FF00210846FFF76DFF00211020FFF7C3
:1005B00069FF002301AA14F833100133802B02F8DD
:1005C000011FF8D101223C21284601F0EBFA01235A
:1005D0008122284601A901F093FB38BBDFF8709017
:1005E000DFF870A099F80020032A14D0DAF8003060
:1005F0000CE00121642001F0EFFFDAF8003099F8F7
:100600000020013B032ACAF8003004D0002BF0DCA4
:10061000012A00D100BE0A4B0134B44289F800809F
:10062000CAF80030B8D122B0BDE8F087BE21054B32
:10063000054A064801F0C8FFD40300208C080020BA
:10064000A08601008C5B0000A85C0000785C0000C4
:100650005C0000205800002000200A4BA3F1080293
:1006600003F5806143F8080C08338B42FAD100216E
:10067000054B02F20C4243F8081C08339A42FAD1A7
:10068000FFF77CBFDC030020E0030020012310B54E
:100690000C4C01F0070E04EBC00C03FA0EF3C90872
:1006A0001CF801C0C000DBB22AB143EA0C0C0444C0
:1006B00004F801C010BD2CEA030C044404F801C086
:1006C00010BD00BFD40300202DE9F04F203A89B0BF
:1006D000082B9DF84880D4B24FEA530C00F08A8072
:1006E00013F0070218BF012202EBD30212FB0CF237
:1006F00012F0FF0A4AD0434A434F02EB041909EBB8
:100700000A02DFF80CE10392404A04EB440504EBD3
:10071000C40402EB850A07EB450B0EEB840EA3F134
:100720000802059376464B46D146DA468346CDE924
:1007300006C00492049A102A28D8DFE802F05E2747
:1007400027274F2727274A272727272727272A0012
:10075000059A0BF10100082ADDE900312C465FFA09
:1007600080FB03F101030AF1010A06F1010609F118
:10077000010939D0079A0698ABEB0205854208BFFC
:100780009346039A08BF21469342D3D109B0BDE8EE
:10079000F08F01F10802357802922C46CDE9003144
:1007A0000D469DF808700AE0424629465846FFF774
:1007B0006DFF691CCDB2BD424FEA5404C8D0E307B7
:1007C000F2D4B8FA88F2294658465209FFF75EFF7C
:1007D000EFE701F108021D780292DEE701F108025D
:1007E00099F800500292D8E7039A9342CED09AF833
:1007F0000050D2E74FF0060A7DE701F108020292AD
:10080000F5E700BF8C6D0000F07700007C730000FE
:10081000306000002DE9F043154612789946A2F1A8
:10082000200383B05E2B9DF8287015D804460E4631
:100830004FEA590820464B4631460097FFF744FFE0
:1008400015F8012FB9F1080FA2F120000CBF0634F2
:1008500044445E28E4B2EDD903B0BDE8F08300BFA4
:100860002DE9F04F83B09DF830709DF83490A7F1DA
:100870000804B4FA84F4640973B383460E469046C0
:100880006400013BDFF870A004EB5705DCB223469F
:10089000013CE4B26BB322460123013AD2B203EB2E
:1008A0008303FF2A4FEA4303F7D1B8FBF3F3AAFB14
:1008B0000312D20802EB8202B3EB42020FD13B4695
:1008C000302231465846CDF80090FFF7FDFEAB448C
:1008D000FF2C5FFA8BFBDAD103B0BDE8F08F30322A
:1008E0003B4631465846CDF80090D2B2FFF7ECFEB9
:1008F000EDE74346DBE700BFCDCCCCCC2DE9F04F94
:10090000994613F0070318BF012303EBD9038B4665
:1009100003FB09F187B09DF8408000295FD0374B79
:10092000374C03EB4213591805913649064601EB43
:10093000422C354901EBC21102EBC20204EBC20AA0
:100940005246CA468946BAF1200F53D04AD8BAF166
:10095000100F4DD0BAF1180F41D115780BF10807DF
:100960002C46CDE9032ACDF804908246E1465D4647
:10097000FFB202930AE0294642463046FFF786FE60
:10098000691CCDB2BD424FEA54040ED0E307F2D445
:10099000B8FA88F2294630465209FFF777FE691CFB
:1009A000CDB2BD424FEA5404F0D150462C46CC465D
:1009B000DDE901930136F6B2DDF810A0351A05998C
:1009C0005545039A03F1010304BFA34606468B4233
:1009D00002F101020CF1010C09F10109B3D107B0D8
:1009E000BDE8F08FBAF1400FF9D19CF80050B5E79F
:1009F0001D78B3E799F80050B0E700BF905F0000A2
:100A0000485F0000C85C0000C85E00002DE9F04FA0
:100A10008E4613F0070118BF012189B011EBD306F0
:100A20009DF84C906AD0002483462546A046104687
:100A3000DC46079600285DD0012700EB0804A3B22E
:100A40000493059503900694129A08F1010312F895
:100A500008501FFA83F82C4B0EF1080A03EBCB0663
:100A6000CDE9018E7446B0465FFA8AFA4E46E146F9
:100A700010E018F800C0D2B24CEA020E2CEA020CC8
:100A8000002E3ED008F800E0611CCCB2A2454FEA2F
:100A9000550515D004F0070215F0010FC4F3C70087
:100AA00007FA02F2E5D1B6FA86F221465846520913
:100AB000FFF7ECFD611CCCB2A2454FEA5505E9D128
:100AC000CC460BF1010B5FFA8BFB039AABEB0C03EB
:100AD0009342DDF80480049B08BFE346DDF808E09C
:100AE00008BFD6469845B146AED11046069C059D36
:100AF0001FFA84F8079B0135AB429BD109B0BDE8D2
:100B0000F08F08F800C0BFE7D403002008B500212B
:100B1000AE20FFF7B7FC00210846FFF7B3FC002129
:100B20001020FFF7AFFC0021B020FFF7ABFC002145
:100B30008120FFF7A7FC00215F20FFF7A3FC002125
:100B40002020FFF79FFC00210220FFF79BFC0021E3
:100B5000A120FFF797FC0021C020FFF793FC0021A4
:100B6000A420FFF78FFC0021A620FFF78BFC0021BB
:100B7000A820FFF787FC00213F20FFF783FC00211E
:100B8000D320FFF77FFC00210846FFF77BFC002104
:100B9000D520FFF777FC00218020FFF773FC0021B0
:100BA000D920FFF76FFC00212220FFF76BFC00210A
:100BB000DA20FFF767FC00211020FFF763FC00211B
:100BC000DB20FFF75FFC00213020FFF75BFC0021FA
:100BD0008D20FFF757FC00217220FFF753FC002007
:100BE0000D4BA3F1080203F5806143F8080C0833AC
:100BF0008B42FAD10021094B02F20C4243F8081C47
:100C000008339A42FAD1FFF7B9FCBDE80840002149
:100C1000AF20FFF737BC00BFDC030020E00300205B
:100C200008B5FFF7B9FA002008BD00BF10B4046A88
:100C3000A37803F07B03A3708378046A03F00303B3
:100C4000D21A0B44C0E90332A37843F08003A370A7
:100C5000837803F00303022B06D0036A0A7800208E
:100C6000DA705DF8044B70470B88026A43F47E43E8
:100C7000D38100205DF8044B704700BFF0B5846A53
:100C800085B005460F4694466E46B4B194E80F0011
:100C900086E80F00EB6920461B78A760236084F884
:100CA00004C0EB6AE3606B6A9847AC6A1CB196E8D3
:100CB0000F0084E80F0005B0F0BD3446EAE700BF3E
:100CC000012203460878824012F0060F05D0CA6957
:100CD00052681278120700F1CB8100224FF0010C0C
:100CE00000F580002DE9F04100F58C500002C3E9C9
:100CF00007101A704D6998785D628D696CF3010078
:100D0000C3E90A2598704878D44C904214BF6546D0
:100D10000225987865F30100987091F90B5091F8CD
:100D20000AE0680905F01F0620300CFA06F644F8C0
:100D30002060BFF34F8FBFF36F8FC94805F1C00626
:100D400050F8267062F3104740F8267050F826607D
:100D5000C44E4FEA0E1E67195FFA8EFE87F800E355
:100D600046F8253091F9055091F804E06F0905F037
:100D70001F0820370CFA08F844F82780BFF34F8F7C
:100D8000BFF36F8F05F1C00750F8278062F310485A
:100D900040F8278050F827704FEA0E1E67195FFA57
:100DA0008EFE87F800E346F8253091F9075091F858
:100DB00006E06F0905F01F0820370CFA08F844F820
:100DC0002780BFF34F8FBFF36F8F05F1C00750F837
:100DD000278062F3104840F8278050F827704FEAC8
:100DE0000E1E67195FFA8EFE87F800E346F825307D
:100DF00091F9095091F808E06F0905F01F082037B4
:100E00000CFA08F844F82780BFF34F8FBFF36F8FB9
:100E100005F1C00750F8278062F3104840F827809A
:100E200050F827004FEA0E10C0B22C4484F800039B
:100E300046F82530EFF310868CF310884FF000450C
:100E40000C788948E540446824EA05044460406819
:100E500086F31088186A8270186A0271186A4272E2
:100E6000186A8272186AC272186A428340F21922A2
:100E700008780CFA00FC1CEA020F02D040201A6A23
:100E8000D0740625012240F219201C6A25770C78BF
:100E9000A240024240F0CA80CA7848788C78D200DA
:100EA000032842EA041200F0D58000280CBFE2209B
:100EB000F2201C6AD2B222701A6A9071CC69227B2D
:100EC000082A00F0C380186A520002F0020242733E
:100ED00000256278A078D201400100F02000D2B253
:100EE0000243186A0572207802380128186A40F215
:100EF000A280D2B2C27160681A6A84785470457850
:100F0000147865F301041470C4789474D47900786B
:100F100004F0A30400F05C002043D0710020C3E97A
:100F20000300C3E90500DC694D4A94F90540CD6929
:100F300004F1C00152F8216095F800C060F310463A
:100F400042F821600CF0030C52F82110BFF35F8FC0
:100F50004FF0010E6109890004F01F0401F16041A6
:100F600001F561410EFA04F4C1F880410C60D969C1
:100F700091F90B4004F1C00152F8216060F3104672
:100F800042F8216052F82110BFF35F8F6109890098
:100F900004F01F0401F160410EFA04F401F561410F
:100FA000C1F880410C60D96991F9074004F1C00192
:100FB00052F8216060F3104642F8216052F8211087
:100FC000BFF35F8F6109890004F01F0401F16041E4
:100FD0000EFA04F401F56141C1F880410C60D96951
:100FE00091F9091001F1C00452F8246060F3104631
:100FF00042F8246052F82420BFF35F8F4A09920020
:1010000001F01F0102F160420EFA01F102F56142A6
:10101000C2F8801111601A6A4CF0700C82F802C09C
:101020006989124A19815A60BDE8F0814FF478400D
:101030001A6A908230E7FF2545702078022808BFA1
:1010400042F01002186AD2B2C27167E70A201A6A27
:1010500050733DE7F22042F040022AE700E100E051
:1010600000600040200900200040084055494353DB
:1010700003207047EFF30383103B1F4A5BB203F179
:10108000C00152F8210020F4803042F8210052F8CB
:1010900021201A4A52F82300C3691B6983B10369EE
:1010A00003B17047026A0021937803F07F0343F095
:1010B00004039370436AC160C3B18022FFF7DEBDB1
:1010C0000369026A002BEED08378C16803F0030342
:1010D000022B0CD00B78D3708278D0E9031302F086
:1010E00003029B1A1144C0E90313D9E770470B8828
:1010F00043F47E43D381EFE70060004020090020E5
:1011000010B582B0EFF30383103B1F4A5BB203F1CB
:10111000C00152F8210020F4803042F8210052F83A
:1011200021201A4A52F82340A27802F00303022B2E
:10113000236A0CBF198A5979A3690CBFC1F308014E
:10114000C9B2019143B9636AB3B10422204602B027
:10115000BDE81040FFF792BD02F0030201A96069EB
:1011600002F08BFAD4E90521A37803F003031A44B3
:10117000C91AC4E9052109B102B010BD636A002B88
:10118000FAD00122E2E700BF006000402009002001
:1011900010B5EFF303830E4A103B5CB252F8240003
:1011A000026A937803F07B039370436A1BB10222B7
:1011B0000021FFF763FD074A04F1C00352F8231032
:1011C00021F4803142F8231052F8233010BD00BFC3
:1011D000200900200060004010B5EFF303831A4A95
:1011E000103B5CB252F82400837803F00303022B17
:1011F000036A0CBF198A597993F804C00CBFC1F374
:101200000801C9B21CF0100F0CF0380206D093F898
:101210001CC01CF0010F08BF42F0400293F804C04C
:101220000CF0C70C83F804C0436A0BB1FFF726FD2E
:10123000064A04F1C00352F8231021F4803142F829
:10124000231052F8233010BD200900200060004018
:1012500070B505466B68324C1B780E4684F8283012
:101260000121C82001F0B8F994F8243023F00103DB
:1012700084F8243094F8243013F00103FAD16A681A
:101280001278012A02D16385B388A3850023244AFA
:1012900082F8243092F82430DB09FBD192F8243014
:1012A0001F4843F0020382F8243090F82430990755
:1012B000C3F34002F9D41A4980F8222091F8223071
:1012C000002BFBD191F82430154A43F0400381F8FC
:1012D000243092F824305B06FBD592F84030104958
:1012E00023F0800382F8403091F84030DB09FBD1D5
:1012F00091F842000A4A63F3C71081F8420092F85D
:101300004230DB09FBD192F84400054963F3C71072
:1013100082F8440091F84430DB09FBD170BD00BF76
:101320000030084038B500230D4641604A69044644
:10133000C2608A690372C0E90432FFF789FF95F938
:101340000F20002A0BDBAB7B02F160411B01DBB2FB
:1013500001F5614181F80033134B43F8224095F9C0
:101360000D20002A0BDB2B7B02F160411B01DBB25D
:1013700001F5614181F800330B4B43F8224095F9A8
:101380001120002A0BDB2B7C07481B0102F1604176
:10139000DBB201F5614181F8003340F82240034B94
:1013A0000020236038BD00BF2009002043545200B4
:1013B00008B54168FFF74CFF002008BD30B5436811
:1013C00093F91130002B09DB554A5C0952F824408F
:1013D00003F01F03DC4014F0010429D1514A92F8B4
:1013E000223043F0020382F8223092F822309C0728
:1013F000FBD542684C4B92F9112002F1C00453F81E
:10140000245025F4803543F8245053F82430BFF39A
:101410005F8F012453099B0002F01F0203F1604318
:1014200003F5614304FA02F2C3F880211A60002434
:101430004FF0000C3B4A80F808C093784FEA131E27
:101440000EEB8E0E03F00F0303EB4E03DBB20B60CB
:1014500013794FEA131E0EEB8E0E03F00F0303EB0E
:101460004E03DBB24B609379C3F3011E0EEB8E0E7D
:1014700003F00F0303EB4E038B60137A4FEA131E46
:101480000EEB8E0E03F00F0303EB4E03DBB28B610A
:10149000937A4FEA131E0EEB8E0E03F00F0303EB4D
:1014A0004E03DBB2CB60137B4FEA131E0EEB8E0EA6
:1014B00003F00F0303EB4E03DBB2013B0B61D38957
:1014C000C3F3031E0EEB8E0E03F00F0303EB4E036C
:1014D000DBB264334B61037A002BACD10CB100203A
:1014E00030BD92F822300F4903F0FD0382F822301C
:1014F00091F822309B07FBD401214368084893F9F7
:1015000011305A0903F01F03203201FA03F340F8A7
:101510002230BFF34F8FBFF36F8F002030BD00BF6D
:1015200000E100E0003008400060004030B41F4D92
:1015300095F82440C4F30014844213D0002485F8A5
:101540002E4095F82E40002CFBD195F824C0174C66
:1015500060F3041C85F824C094F824C0CCF3001C6C
:101560008445F9D101280DD003F03F030F4943EA28
:101570008212D2B281F82E2091F82E309A42FBD1FD
:1015800030BC7047094C94F82400C0F340108842E6
:10159000EAD094F8240061F3451084F8240094F80C
:1015A0002400C0F340108842F9D1DDE70030084044
:1015B00010B54A4B93F8242022F0010283F824202E
:1015C00093F82420D207FBD491F800C0444AA2FB30
:1015D0000C4E4FEADE0E0EEB8E04ACEB440C4CEAE4
:1015E0000E1C5FFA8CFC83F802C091F804C0A2FBC9
:1015F0000C4E4FEADE0E0EEB8E04ACEB440C4CEAC4
:101600000E1C5FFA8CFC83F804C091F808C0A2FBA2
:101610000C4E4FEADE0E0EEB8E04ACEB440C4CEAA3
:101620000E1C0CF03F0C83F806C091F818C0A2FB0A
:101630000C4E4FEADE0E0EEB8E04ACEB440C4CEA83
:101640000E1C5FFA8CFC83F808C091F80CC0A2FB5A
:101650000C4E4FEADE0E0EEB8E04ACEB440C4CEA63
:101660000E1C5FFA8CFC83F80AC00C6904F1010CB3
:101670005FFA8CFCA2FB0C4E4FEADE0E0EEB8E04E2
:10168000ACEB440C4CEA0E1C5FFA8CFC83F80CC0EB
:1016900049696439C9B2A2FB0142D20802EB820C4B
:1016A000A1EB4C0141EA0211C9B2D98143681A7811
:1016B00062B10A4A92F8243043F0010382F82430E0
:1016C00092F82430DB07FBD5002010BD98684368F2
:1016D000827841780078FFF729FFEAE70030084078
:1016E000CDCCCCCC1C4A92F8223003F00F0343EA55
:1016F0000113DBB282F8223092F82230B1EB131FD3
:10170000FAD192F82230144943F0040382F82230CF
:1017100091F822305B07FBD54268104B92F90F20FD
:1017200002F1C00153F8210020F4803043F8210079
:1017300053F82130BFF35F8F012153099B0002F062
:101740001F0203F1604303F5614301FA02F2C3F89B
:1017500080211A600020704700300840006000407F
:1017600010B50124436882B093F90DC04FEA5C10B4
:1017700080000CF01F0300F160409C4000F56140C8
:10178000C0F88040BFF34F8FBFF36F8F91F82430C4
:10179000002B00F0DA800B786D4AA2FB03E2D2083E
:1017A00002EB820EA3EB4E0343EA021363F07F03C6
:1017B000DBB28DF807309DF80730664ADBB2137450
:1017C00091F82530002B00F0BD800B79604AA2FB18
:1017D00003E2D20802EB820EA3EB4E0343EA0213AC
:1017E00063F07F03DBB28DF807309DF80730594A6C
:1017F000DBB2937491F82630002B00F0A0800B7AB6
:10180000534AA2FB03E2D20802EB820EA3EB4E0383
:1018100043EA021363F07F03DBB28DF807309DF8D3
:1018200007304C4ADBB2137591F82A30002B00F0D8
:1018300083800B7E43F080038DF807309DF80730DE
:10184000444ADBB2937591F82730002B70D00B7BA4
:101850003F4AA2FB03E2D20802EB820EA3EB4E0347
:1018600043EA021363F07F03DBB28DF807309DF883
:101870000730384ADBB2137691F82830002B54D069
:101880000B69334A0133DBB2A2FB03E2D20802EB5D
:10189000820EA3EB4E0343EA021363F07F03DBB235
:1018A0008DF807309DF807302A4ADBB2937691F81D
:1018B0002930002B36D04B69254A643BDBB2A2FBB2
:1018C00003E2D20802EB820EA3EB4E0343EA0213BB
:1018D000DBB28DF807309DF807301E4ADBB29383E8
:1018E00091F82930DB01DBB2937792F8223043F094
:1018F000010382F8223092F82230DB07FBD5164A2A
:101900000CF1C00352F8231021F4803142F8231067
:1019100052F82330BFF35F8FC0F88041046000208D
:1019200002B010BD8DF80730D5E78DF80730B9E764
:1019300001238DF807309AE78DF807307EE78DF8A0
:1019400007306CE78DF807304FE78DF8073032E746
:10195000CDCCCCCC003008400060004070B582B0E7
:10196000EFF30383174A103B5CB252F82450EB6844
:10197000CBB16A682B6992F90D206E46121B18BF15
:1019800001225200E3B193E8030086E803001A70D5
:101990006A6918465A60EB6898472B691BB196E84C
:1019A000030083E80300084A04F1C00352F823103F
:1019B00021F4803142F8231052F8233002B070BD78
:1019C0003346E4E72009002000600040EFF3038382
:1019D0000120084A103B5BB252F82310064A0872F5
:1019E000C03352F8231021F4803142F8231052F80A
:1019F0002330704720090020006000402DE9F84F97
:101A00000388DBB182464FF0000B4FF00109DFF88D
:101A1000D0800024304D4FEACB07DAF8043035F897
:101A2000022BD919898891420AD00134032CF4D1B0
:101A3000BAF800300BF1010B5B45EAD8BDE8F88F2E
:101A4000DB5909FA04F603F0B853B3F1807FF6B21C
:101A500098F8BB3413D0334231D1204A04F1200628
:101A600012F81630DB09E0D012F81630012123F00D
:101A70008003C82002F8163000F0AEFDD5E73342EF
:101A800011D0164A04F1200112F81130DB09CCD133
:101A900012F81130C82043F0800302F81130012100
:101AA00000F09AFDC1E7012000F05AFE98F8BB341F
:101AB0000120334388F8BB3400F022FEE1E7012027
:101AC00000F04EFE98F8BB34012023EA060388F8A4
:101AD000BB3400F015FEC0E7487B00000030084032
:101AE00000E00140F8B50646FFF788FFEFF31082EB
:101AF000012383F31088234F3B681BB92249CB7025
:101B00004023CB703B6801333B6082F310883388FD
:101B100023B300211D4D08E01B01134445F8234069
:101B2000328801318BB29A4218D9736853F8314028
:101B300003EBC1029288E0034FEA1223D2B2EBD545
:101B400002EB031055F820E024F4803C2EF4803E94
:101B500045F820E01B0145F820C0DEE7EFF31082D6
:101B6000012383F310883B6813B13B68013B3B6062
:101B70003B681BB980200449CB70C87082F3108881
:101B8000F8BD00BF1C090020000D084000080840F7
:101B900008B5034B03600846FFF7A4FF002008BD0B
:101BA00054524F500346002059601A72704700BFCC
:101BB00030B5836B83B004460A466D46A3B193E803
:101BC000030085E80300E16B1A7119601846636B26
:101BD0009847A36B1BB195E8030083E8030000233B
:101BE00084F82B3003B030BD2B46ECE730B5424BC8
:101BF00083B01B6A01690193019B03F00F230193DA
:101C0000019A019D0B7C90F82C4094B9C2F30322F9
:101C1000DBB2A2EB156293409B0804D1082003B00D
:101C200030BD013BFAD04A78D209FAD1B323CB7147
:101C30000169002390F82620846980F82720026833
:101C400080F82B30C46180F82D3080F8283080F87F
:101C50002E30036280F82F3080F83030546A2278BA
:101C600094F801E0012A14BF4FF0040C4FF0050C6A
:101C70006279120142EA4E0294F806E042EACE127C
:101C80004CEA0202D2B2CA7001690A7942F010022B
:101C90000A7101690A7963F3C3020A7101690A7959
:101CA00063F304120A710269E179137961F3C713CE
:101CB00013710269537943F001035371036893F977
:101CC0000F30002B07DB012203F01F040B495B09D7
:101CD000A24041F82320BF220369DA7190F82C302A
:101CE0002BB1002380F82C30002003B030BD02223D
:101CF00003695A70F8E700BF00E0014000E100E02E
:101D000090F808C0C0E90512BCF1010F80F82A3034
:101D100008D10022436880F826C05B0080F8243098
:101D200080F82520002380F82930FFF75FBF00BF2F
:101D30002DE9F0434FF01F085F27DF260569DFF824
:101D4000B49185F8008005694FF0000C2F7005698B
:101D50004FF0B30E2E700568634A6E6A05693679D6
:101D6000624C46F0E0062E740568614B6E6A0569A8
:101D7000F67846F0E0066E7405686E6A0569B67816
:101D8000360106F0700646F00806AE7005686E6A09
:101D900005693778012F777814BF0426052646EAAF
:101DA0004706F6B2EE7005686E6805694E4514BFC9
:101DB0007726F7266E71056985F806C0056985F8EE
:101DC00007E04E7B91F9115036015719F6B287F8AA
:101DD000006344F8250005F1C00653F826706CF343
:101DE000104743F8267053F82660BFF35F8F4FF01B
:101DF000010E6E09B60005EA080506F1604606F513
:101E000061460EFA05F5C6F8805135604E7B91F9B2
:101E10000F5036015719F6B287F8006344F82500D1
:101E200005F1C00653F826706CF3104743F826708E
:101E300053F82660BFF35F8F6E09B60005EA080508
:101E400006F160460EFA05F506F56146C6F88051C2
:101E500035604E7B91F9105036015719F6B287F86C
:101E6000006344F8250005F1C00653F826706CF3B2
:101E7000104743F8267053F82660BFF35F8F6E0952
:101E8000B60005EA080506F160460EFA05F506F506
:101E90006146C6F8805135604D7B91F90E102D01D9
:101EA0000A44EDB282F8005344F8210001F1C00267
:101EB00053F822406CF3104443F8224053F8223088
:101EC000BFF35F8F4B099B0001EA080103F16043F8
:101ED0000EFA01F103F56143C3F8801119609F22E6
:101EE00003691A70BDE8F08300E100E020090020DA
:101EF0000060004040420F0070B500250A78016084
:101F000002F5800202F51F62120202618A684260D5
:101F10000A7B0272CA6942630A6AC0E90E52EFF391
:101F2000108C012282F310880B78C3F109039A40C8
:101F30000C4B5E6826EA02025A605B688CF31088DC
:101F4000FFF7F6FEC0E90755074B80F829504561B9
:101F500080F82A50856180F82B50C36080F82C509F
:101F6000284670BD004008404349495210B582B030
:101F7000EFF30383103B5F4A5BB2C03352F8231088
:101F800021F4803142F8231052F82330EFF3038319
:101F9000594A103B5BB252F8234094F82D305BBB9A
:101FA000A369022B22D9E369012B0ED1226913798F
:101FB00043F0100313712269137943F0080313717E
:101FC0002269137923F01003137123685B6ADB79AC
:101FD000002B3ED101222369DB7CDBB28DF8073078
:101FE0009DF8073084F82D2002B010BD22691379C6
:101FF00043F040031371D6E7E369002BF4D0226865
:10200000526AD279FAB9032B17D0022B26D0012BB2
:1020100034D02269236AD17C6269D154D4E9073271
:102020000132013BC4E90732002BDDD121690A7975
:1020300063F386120A7102B010BD2269137943F06E
:1020400040031371E5E705212046FFF7B1FDE36981
:10205000D9E705212046FFF7ABFDBBE722691379DD
:1020600043F0100313712269137943F008031371CD
:102070002269137923F010031371CAE794F82A2018
:1020800072B322681D4892F90F20510902F01F0215
:1020900003FA02F2203140F82120BFF34F8FBFF343
:1020A0006F8F04202169CA7942F08002CA712169C8
:1020B0000A7942F010020A7121690A7922F00802B5
:1020C0000A7121690A7922F010020A71226950709E
:1020D00021694A7922F001024A7184F82C3098E78C
:1020E00008212269537A03F0F70353722369597068
:1020F0008FE700BF006000402009002000E100E001
:1021000010B5EFF30383103B424A5BB2C03352F881
:10211000231021F4803142F8231052F82330EFF3DA
:1021200003833D4A103B5BB252F8234094F82730BA
:10213000002B3FD194F82930002B3AD123685B6AF9
:10214000DB792BB194F82B3013B9236A002B5BD1C8
:10215000E3692169002B40D1CB79C02223F08003B1
:10216000CB71216901E0013A02D0CB79DB09FAD1C8
:102170002368284A93F91030C03352F8231021F411
:10218000803142F8231052F82330236893F910303D
:10219000002B09DB01215A09204803F01F0360329C
:1021A00001FA03F340F822302269D37943F0400367
:1021B000D37110BD94F82630032B1CD094F8242042
:1021C00023699A7494F8282094F827300132013B4F
:1021D00084F8282084F8273010BD236A6269D35C14
:1021E0008B74D4E907320132013BC4E90732002B7A
:1021F000DFD12169B0E794F82830022BDED194F8C2
:102200003030002BDAD110BD05212046FFF7D0FC7D
:102210009EE700BF006000402009002000E100E0D0
:1022200038B5EFF30383334A103B5BB252F82340D7
:1022300023685B6ADB79002B48D194F829301BB105
:1022400094F82730012B4FD0E369DBB12169C0231B
:10225000CA7922F04002CA71216901E0013B02D033
:10226000CA795206FAD4EFF30383103B224A5BB2D9
:10227000C03352F8231021F4803142F8231052F871
:10228000233038BD94F82A202AB3012022681B4D40
:1022900092F90F20510902F01F02203100FA02F2D8
:1022A00045F82120BFF34F8FBFF36F8F2169CA79A3
:1022B00042F08002CA7104212269517021694A7971
:1022C00063F300024A7184F82C00BFE70521204621
:1022D000FFF76EFCB1E708212269537A03F0F70398
:1022E000537223695970B1E794F83030002BADD0A8
:1022F000AAE700BF200900200060004000E100E0E4
:1023000038B5EFF303834C4A103B5BB252F823001D
:102310000269537A517ADC0601F0E00151725FFAEA
:1023200083FC03F003022BD503695978490647D48F
:102330000024012580F82B50DC710168FFF7F8FCC0
:10234000B32290F8263080F82C4080F82830C46101
:1023500080F82A400369846929460462DA71FFF72C
:1023600027FCEFF30383103B344A5BB2C03352F8CF
:10237000231021F4803142F8231052F8233038BD65
:10238000002A56D11CF0080F0ED090F82B30002BED
:102390003ED1B32290F829100369C1F10301C9B2FB
:1023A000DA71FFF705FCDCE790F82C200CF0040351
:1023B0002AB3002BD5D090F82B30002B37D1E8E78B
:1023C000002AB5D15A78C2F380115206DAD5082214
:1023D00080F82B105A70036801695A6A947913784F
:1023E000527943EAC41343EA021343F00203DBB217
:1023F000CB700269537943F001035371B1E7002BAD
:10240000AFD003685B6ADB79002BAAD00421C8E750
:102410000023B32190F826508469026980F82C309B
:1024200080F828500462C36180F82A30D1710121FC
:10243000B7E703697CE700BF200900200060004087
:10244000064B074993F826001A6A51F82030C2F368
:1024500002620449D3400B60704700BF00E00140B6
:102460009403002058090020704700BFF8B54AF2D5
:10247000035001233F49404AA1F8FE03A2F804316A
:10248000B2F804319BB2002BFAD14FF0010C4FF49B
:10249000004120250920394C394F3A4E67603A4FA8
:1024A000344BE760A2F800C1384A2660A160216180
:1024B000626193F82620196A54F82220344EC1F341
:1024C0000261CA40326083F8135483F8A20093F883
:1024D00080241AB993F88134990746D0254D95F890
:1024E0008034002B36D00022224B83F8812483F8DD
:1024F000802400231F4981F8323091F83C301A07BC
:10250000FBD543F6013000231A4A088581F82A30AA
:1025100092F83C309B06FBD5012005231649F12596
:1025200081F81C011B49116282F8263092F826308E
:10253000106A54F82310C0F30260C14031600024D7
:10254000F0204FF42541144B1D731C721873A2F830
:10255000FE13F8BD0121C82085F8801400F03CF876
:1025600095F88034012BFBD1BDE74FF47A70FFF76B
:102570007BFFBEE700E0014000C001409403002063
:1025800000127A00002D3101001BB7000095BA0A35
:1025900058090020211202210020004010B500241B
:1025A000064B012083F8284000F0DAF8044B0120A4
:1025B00083F8BB44BDE8104000F0A2B800300840EA
:1025C00000E00140704700BF00BEFEE7A0F101003F
:1025D0000028FBD1704700BF4FF47A7310B400FBA2
:1025E00001F1114C114A2468B2FBF4F2A1FB03047F
:1025F0003CB9B0FBF2F0800860B15DF8044BFFF726
:10260000E5BF9200B1FBF2F1A1FB03132BB9084621
:102610000028F2D15DF8044B70474FF0FF3C5DF8A5
:10262000044B6046FFF7D2BF5809002000CA9A3B0E
:1026300070B500240B4B0C4EB3F82021B3F8405179
:10264000ADB2154025FA04F3DB0704D556F8243063
:10265000E0B203B1984701340E2CF3D1014BA3F83B
:10266000305170BD00600040E408002030B5032008
:1026700085B000F075F800256FF0FF014FF0FF30D6
:102680001B4B1C4C996422462B464FF0010ECDE9A2
:102690000100039032F8021B0EFA03FC013311B162
:1026A000012520EA0C000B2BF4D1F5B10190124B5F
:1026B0000F4A1067C3F88002029903205167C3F8DC
:1026C000841203999167C3F8881200F019F8002367
:1026D0000A4834F8022B03F1C00101330AB140F873
:1026E00021200B2BF5D105B030BD4FF0FF30DEE7D8
:1026F00000800040307B000000E100E0006000400E
:10270000EFF31081012383F31088124B33F810206C
:1027100092B22AB133F81020013A92B223F8102075
:1027200033F810309BB293B910B40B4A0B4CB2F88B
:10273000FE3334F810009BB243F4254323EA000330
:10274000A2F8FE3381F310885DF8044B704781F3E3
:10275000108870474C09002000E00140507B0000C9
:1027600030B4EFF31081012383F310880E4A32F85E
:1027700010309BB26BB90D4C0D4DB4F8FE3335F8EB
:1027800010C09BB243EA0C0343F425439BB2A4F868
:10279000FE3332F8103001339BB222F8103081F34F
:1027A000108830BC704700BF4C09002000E0014099
:1027B000507B000008B50C4A0346106840B1033353
:1027C0000A4923F0030303448B4205D8136008BD74
:1027D000074908461160F2E700F038FF0C22034673
:1027E0001A604FF0FF3008BD54090020A82A0020CD
:1027F000A80A002000BE704708B500F003F8FEF7F5
:102800000FFAFEE74FF4700270B52B4B2B4CC3F858
:10281000882000209C60FDF729FEFFF727FE01209D
:10282000FDF724FE2368A3F5806383F30A88244818
:10283000244A0021121A00F0B7FE2348234A2449F3
:10284000121A00F01AFF234D234B5B1B002B07DDF0
:1028500000249E1055F8043B01349847A642F9DC49
:10286000FFF7EEFDFFF79AFE0320FFF779FF4FF623
:10287000FF720024194B03201A825A829A82DA824C
:102880001A835A839A83DA83FFF73AFF0320FFF70C
:1028900067FF134B03205C609C60DC601C61FFF7EA
:1028A0002FFF0220FDF7E2FDFFF7E0FE2046BDE826
:1028B0007040FFF787BE00BF00ED00E000000000A1
:1028C000B0030020A80A002000000020940300208C
:1028D000C07E00008C03002090030020000D084003
:1028E00000000E402DE9FF4757EC106B002F0C46FF
:1028F00019463B46B4BF07F1004300239146BFBFD2
:1029000032461F462D231646DDF830A00B700D9B76
:1029100023F02008B8F1460F05D0B8F1450F00D1DB
:102920000134022100E0032103AB2246019302ABF4
:1029300047EC106B0093534600F042FFB8F1470F8D
:10294000054619D119F0010F0ED000EB0409002241
:1029500000233046394603F04DF808B1CDF80C900D
:102960003022039B4B451ED3039B28460E9A5B1BCC
:10297000136004B0BDE8F087B8F1460F00EB04091E
:10298000E5D10378302B0AD10022002330463946A6
:1029900003F030F818B9C4F10104CAF80040DAF8BD
:1029A00000309944D3E7591C03911A70D9E7F7B561
:1029B00000290270BABF49422D232B2309294370F5
:1029C00028DD0DF107030A271D461A46013BB1FB1E
:1029D000F7F607FB1614303402F8014C0C4631466A
:1029E000632CF2DC3031941E03F8011C411C234699
:1029F000AB420AD30DF109039B1AAC4288BF0023F6
:102A000002330344181A03B0F0BD13F8016B01F848
:102A1000016FEDE7302330318370031DC170F1E7A2
:102A20002DE9F04F8DB00C4616461F46DDF8588054
:102A3000054600F0C1FD03681846049300F02AFE25
:102A4000002305900A93D8F8003094F818A00733B3
:102A5000D4F800B023F0070303F10802C8F80020FF
:102A60004FF0FF32D3E9008929F00043CDF81880F8
:102A700007939D4BDDE90601C4E9128902F0ECFFE2
:102A800070BB4FF0FF32984BDDE9060102F0C6FF44
:102A900030BB002200234046494602F0B5FF10B18A
:102AA0002D2384F84330914A914BBAF1470F8CBFE4
:102AB0009046984603234FF0000923612BF004034E
:102AC000236033460BAA21462846009700F0D2F92E
:102AD000013040F08D804FF0FF300DB0BDE8F08F39
:102AE00042464B464046494602F0B6FF40B14B468F
:102AF000804A002BBCBF2D2384F843307E4BD4E7A3
:102B00000AF0DF02636806925A1C3BD10623636019
:102B10004BF4806200232846226003930AABCDE980
:102B200001A309AB49EC108B00930DF123036168FD
:102B3000FFF7D8FE069B80460999472B29D1C81C70
:102B400002DB6368994241DDAAF1020A5FFA8AFA60
:102B50000139524604F150000991FFF728FF0A9A03
:102B600081461318012A236102DC2268D20701D5AD
:102B7000013323619DF82330002BA2D02D2384F84C
:102B800043309EE7069A472AC2D1002BC0D10123C9
:102B9000BDE7BAF1650FDBD9BAF1660F18D100298C
:102BA00063680BDD216113B92268D00702D50133B8
:102BB0000B4423614FF00009A165DBE713B92268DC
:102BC000D20701D50233F4E70123F2E74FF0670A99
:102BD0000A9B994205DB23682161D807EAD54B1C83
:102BE000E7E70029D4BFC1F1020201221344E0E764
:102BF00023685A0507D42369424631462846B84718
:102C000001302BD167E7BAF1650F40F2DD80002279
:102C10000023D4E9120102F0EDFE002833D0012395
:102C2000364A31462846B84701303FF454AFDDE913
:102C30000938434502DB2368D8070FD531462846BB
:102C4000DDE90423B84701303FF445AF4FF00009F8
:102C500008F1FF3804F11A0AC84509DC23689B070C
:102C600000F10381E0680B9B9842B8BF184634E737
:102C70000123524631462846B84701303FF42BAF76
:102C800009F10109E8E7099B002B39DC01231B4A04
:102C900031462846B84701303FF41DAFDDE9093918
:102CA00059EA030302D12368D907D7D5314628460C
:102CB000DDE90423B84701303FF40DAF4FF0000ABF
:102CC00004F11A0B099B5B42534501DC4B4693E729
:102CD00001235A4631462846B84701303FF4FBAE3F
:102CE0000AF1010AEEE700BFFFFFEF7F5C7B000007
:102CF000587B0000647B0000607B0000687B000064
:102D0000A36DDDF828A05345A8BF5346002B994674
:102D100036DC4FF0000B29EAE97904F11A02A36DC1
:102D20000693A3EB09035B4531DC099B9A453ADC2A
:102D30002368DA0737D4099BAAEB0309069BAAEBA1
:102D400003039945A8BF9946B9F1000F33DC4FF052
:102D5000000829EAE97904F11A0B099BAAEB03039D
:102D6000A3EB090343457FF779AF01235A46314668
:102D70002846B84701303FF4AEAE08F10108ECE751
:102D8000424631462846B8470130C2D1A3E6012366
:102D9000314628460692B84701303FF49CAE0BF10D
:102DA000010B069ABBE7DDE9042331462846B84704
:102DB0000130C0D18FE6069A4B4631462846424440
:102DC000B8470130C3D186E6DDF828A0BAF1010F7B
:102DD00001DCDB0736D50123424631462846B84799
:102DE00001303FF478AE31462846DDE90423B84788
:102DF00001303FF470AE002200230AF1FF3AD4E91B
:102E0000120102F0F7FDC0B9534608F10102314644
:102E10002846B84701300CD15DE601235A463146B9
:102E20002846B84701303FF456AE08F10108D045B6
:102E3000F3DB4B4604F15002DFE64FF0000804F1EB
:102E40001A0BF4E701234246E1E701234A463146E3
:102E50002846B84701303FF43EAE08F10108E36868
:102E60000B995B1A4345F0DCFCE64FF0000804F1D7
:102E70001909F4E72DE9F047164698468A6807468F
:102E80000B690C46DDF820909342B8BF13463360BF
:102E900091F843200AB1013333602368990642BF99
:102EA000336802333360256815F0060506D104F156
:102EB000190AE36832689B1AAB422BDC94F8433062
:102EC0002268003B18BF0123920630D404F143026C
:102ED00041463846C847013023D023681A3454F895
:102EE0000A2C03F00603042B0ABF54F80E5C0025DD
:102EF00033684FF0000608BFED1A54F8123C08BFC3
:102F000025EAE5759342C4BF9B1AED18B5421AD164
:102F1000002008E00123524641463846C8470130A8
:102F200003D14FF0FF30BDE8F0870135C1E7E1186C
:102F30005A1C30200233224481F8430094F8451093
:102F400082F84310C2E70123224641463846C8476B
:102F50000130E6D00136D9E72DE9FF470F7E9146D3
:102F600080460C46782F9A460C9E01F1430207D802
:102F7000622F0AD8002F00F0D180582F00F0B880BF
:102F800004F1420684F842703AE0A7F16303152B7E
:102F9000F6D801A151F823F0F12F00000530000010
:102FA000812F0000812F0000812F0000812F000061
:102FB00005300000812F0000812F0000812F0000CC
:102FC000812F0000033100002F300000BD300000D1
:102FD000812F0000812F000025310000812F00008B
:102FE0002F300000812F0000812F0000C53000002D
:102FF00033681A1D1B68326004F1420684F84230BF
:1030000001239CE033682068191D3160060601D554
:103010001D6803E04506FBD5B3F90050002D03DA27
:103020002D236D4284F8433058480A2311E021686B
:103030003368080653F8045B02D4490648BFADB2B2
:103040006F2F3360514814BF0A230823002184F8EE
:1030500043106668002EA66005DB21682E4321F030
:10306000040121604BD01646B5FBF3F103FB115769
:10307000C75D06F8017D2F460D46BB42F4D9082BEB
:103080000BD12368DF0708D5236961689942DEBF49
:10309000302306F8013C06F1FF36921B22614B46B5
:1030A00003AA21464046CDF800A0FFF7E3FE013019
:1030B0004AD14FF0FF3004B0BDE8F087236843F0F9
:1030C0002003236078273248236884F845701F0660
:1030D000316851F8045B02D45F0648BFADB231607D
:1030E000D90744BF43F0200323601DB11023ADE78F
:1030F0002648E9E7236823F020032360F6E7164615
:10310000BDE733682568181D616930602E061B68AD
:1031100001D5196002E06806FBD519800023164628
:103120002361BCE7336800211A1D32601E686268A3
:10313000304600F094FA08B1801B60606368236138
:10314000002384F84330AAE72369324649464046C3
:10315000D0470130ADD023689B0713D4E068039BB0
:103160009842B8BF1846A6E7012332464946404672
:10317000D04701309DD00135E36803995B1AAB421B
:10318000F2DCEBE7002504F11906F5E76A7B0000A5
:103190007B7B0000002310B50446836081811946C3
:1031A0004366C28108228361C0E90033C0E9043369
:1031B0005C3000F0F9F90D4B246263620C4BA362A2
:1031C0000C4BE3620C4B23630C4B9C4206D003F187
:1031D0006802944202D0D0339C4205D104F15800D9
:1031E000BDE8104000F038BA10BD00BFF933000050
:1031F0001B34000053340000773400005C090020C9
:10320000024A0349034800F069B800BFC401002026
:10321000CD4F0000D401002041680C4B994210B5FD
:10322000044601D001F0D2FEA168094B994202D0B8
:10323000204601F0CBFEE168064B994204D02046BF
:10324000BDE8104001F0C2BE10BD00BF5C09002007
:10325000C40900202C0A002010B50B4B04210B4C94
:103260000B4A20461A600022FFF794FF04F1680021
:1032700001220921FFF78EFF04F1D0000222122162
:10328000BDE81040FFF786BF940A00205C090020CB
:1032900001320000014800F0E0B900BF9D0A0020A3
:1032A000014800F0DBB900BF9D0A002010B50446BC
:1032B000FFF7F0FF236A1BB1BDE81040FFF7F0BF36
:1032C000044B2362044B1B68002BF5D1FFF7C4FFAE
:1032D000F2E700BF19320000940A00202DE9F843FC
:1032E0000746884614460026D4E90195B9F101093C
:1032F00005D52468002CF7D13046BDE8F883AB89AA
:10330000012B07D9B5F90E30013303D029463846D1
:10331000C04706436835E9E70FB407B5064904AB73
:10332000086853F8042B8168019301F0B3FC03B0E3
:103330005DF804EB04B07047D0010020036A70B55B
:1033400005460E4684680BB9FFF7B0FF636EDB07D6
:1033500005D4A389980502D4A06D00F07EF9A38955
:10336000190702D52369002B35D12146284600F0E4
:10337000C5F880B34FF0FF35636EDA0705D4A38933
:103380009B0502D4A06D00F069F9284670BD002BA2
:1033900004DAA2699A4217DC0A2915D023685A1C5C
:1033A00022601970A36816F8011F013BA360002971
:1033B000EDD1002B11DA22460A21284600F05FF8F1
:1033C0000130D7D00A25D7E72246284600F057F823
:1033D0000130E7D1CEE7013EE4E723685A1C2260C2
:1033E0000A221A70EEE7FFFF024B01461868FFF74A
:1033F000A5BF00BFD001002010B50C46B1F90E10DA
:1034000000F000F90028ABBF636DA3891B1823F4FB
:103410008053ACBF6365A38110BD2DE9F0411F4609
:103420008B8905460C46DB05164605D5022300228E
:10343000B1F90E1000F0D4F8A3893246B4F90E1099
:10344000284623F48053A3813B46BDE8F04100F0B9
:10345000EBB810B50C46B1F90E1000F0C1F8431CE2
:10346000A38915BF606523F4805343F48053A3817F
:1034700018BFA38110BDB1F90E1000F0A1B8F8B5C6
:103480000E461446054618B1036A0BB9FFF70EFF46
:10349000A369A360A3891A0701D5236943B921460B
:1034A000284600F02BF818B14FF0FF373846F8BD2A
:1034B0002368F6B222693746981A6369834205DCAD
:1034C0002146284601F082FD0028EDD1A368013B8A
:1034D000A36023685A1C22601E70431C62699A42D2
:1034E00004D0A389DB07E1D50A2EDFD12146284687
:1034F00001F06CFD0028D9D0D6E7FFFF38B5294B85
:1035000005460C46186818B1036A0BB9FFF7CEFEE2
:10351000B4F90C30190722D4DA0607D409222A603C
:1035200043F040034FF0FF30A38133E0580712D53A
:10353000616B41B104F14403994202D0284600F086
:10354000FDFE00236363A38923F02403A3810023EA
:10355000636023692360A38943F00803A38123697F
:103560004BB9A38903F42073B3F5007F03D0214640
:10357000284601F078FDB4F90C3013F001020AD0AE
:103580000022A26062695242A261226942B913F02C
:103590008000C5D138BD990758BF6269A260F4E7C1
:1035A0000020F7E7D001002002440346934200D1F7
:1035B000704703F8011BF9E700487047100300202B
:1035C00038B50023054D044608462B6002F082FA08
:1035D000431C02D12B6803B1236038BD980A002038
:1035E00038B50446064D0846114600222A601A46A0
:1035F00002F088FA431C02D12B6803B1236038BD66
:10360000980A002038B50446064D084611460022A7
:103610002A601A4602F07EFA431C02D12B6803B1DD
:10362000236038BD980A002038B50446064D084688
:10363000114600222A601A46FCF76AFD431C02D19B
:103640002B6803B1236038BD980A0020014B18682D
:10365000704700BFD0010020704770477047C9B263
:103660000346024410B59342184601D1002003E0FE
:10367000047801338C42F6D110BD0A44431E9142B6
:1036800000D1704710B511F8014B914203F8014F7A
:10369000F9D110BD034613F8012B002AFBD1181AEB
:1036A000013870472DE9F74F036907460C69A342BB
:1036B000C0F28380013C00F1140501F11408A3005D
:1036C00055F8242008EB8409009305EB840301934B
:1036D00058F8243001339A42B2FBF3F631D34FF05D
:1036E000000AC446AE46D3465CF8043B98B2E145B6
:1036F0004FEA134306FB00A04FEA104280B206FBDC
:103700000323DEF8002092B24FEA134AA2EB000234
:103710009BB2DEF800005A44C3EB224392B203EBA3
:10372000104342EA03424FEA234B4EF8042BDBD20C
:10373000009BEB582BB9019B043B9D421A4630D3AA
:103740003C61384601F070F9002826DB294600204C
:1037500058F8042BD1F800C01FFA82FEC1451FFAA9
:103760008CF34FEA1242A3EB0E030344C2EB234255
:103770009BB202EB1C4243EA02434FEA224041F86B
:10378000043BE5D255F8242005EB840322B9043B21
:103790009D421A460BD33C610136304603B0BDE86A
:1037A000F08F1268043B002ACAD1013CC5E71268B9
:1037B000043B002AEFD1013CEAE70020EEE7FFFFDF
:1037C0002DE9F04FC76999B08346229E09910E9268
:1037D000139355EC104B8DED040B7FB9102000F0C6
:1037E000F7FD0246CBF81C0020B9A74BEF21A748F4
:1037F000FEF7EAFEC0E901770760C760DBF81C301E
:10380000196859B15A680123584693404A608B6041
:1038100000F0D4FEDBF81C3000221A602B1EB7BF6C
:1038200023F00043002301220593A8BF3360059FC6
:10383000974BB8BF3260BB4312D142F20F73139A59
:103840001360C7F31303234300F04685239BDFF87F
:1038500054A2002B00F048850AF1030300F042BD9A
:103860009DED047B0022002351EC170B8DED0C7BAA
:1038700002F0C0F8804658B10123139A1360239BCD
:1038800013B1844B239A1360DFF81CA200F02CBD07
:10389000C7F30A5616AA17A958469DED0C0B01F05E
:1038A00077F98146002E75D00D9BA6F2FF36CDF834
:1038B0005080C3F3130343F07F53DDE90C0143F45D
:1038C000401319460022744B01F074FC68A3D3E93D
:1038D000002301F027FE68A3D3E9002301F06CFC6C
:1038E00004460D46304601F0B3FD65A3D3E900233D
:1038F00001F018FE02460B462046294601F05CFC0A
:1039000004460D4602F0BEF800220746002320467A
:10391000294602F079F840B1384601F099FD224677
:103920002B4602F067F800B9013F162F51D85B4BC8
:1039300003EBC703DDE90C01D3E9002302F064F8CF
:10394000002848D0013F00231293169B9B1B5A1E50
:1039500046BFC3F1010800234FF00008089248BF9A
:103960000893002F39DB089B0F973B4408930023F3
:103970000A93099B092B61D8052BC5BF043B002482
:1039800001240993099B023B032B63D8DFE803F072
:103990005254372CDDE916631E4406F23243202BC5
:1039A000C9BFC3F14003C3F120039F4006F2124395
:1039B000D8BF04FA03F006F1FF36C4BF24FA03F3BC
:1039C00047EA030001F034FD0122A1F1F8731492DB
:1039D00077E70123B8E71290B7E77B42A8EB070827
:1039E0000A9300230F93C4E701230B930E9BFB184C
:1039F00000930133012B0393B8BF012306E0012399
:103A00000B930E9B002B28DD00930393DBF81C0027
:103A10000021042202F114059D4223D94160584639
:103A200000F08CFD8246002840D11D4B024640F23A
:103A3000AF11DCE60023E3E70023D6E701240023EF
:103A40000B9409934FF0FF3300220093039312234A
:103A50000E92DBE701230B93F4E701231A46009350
:103A60000393F5E701315200D4E700BFAFF30080C4
:103A700061436F63A787D23FB3C8608B288AC63F74
:103A8000FB799F501344D33F997B0000B07B00002B
:103A90000000F07F697B00000000F83FC87C000058
:103AA000097C0000957B0000687B0000DBF81C307F
:103AB0001860039B0E2B00F2A180002C00F09E806A
:103AC000002F33DD07F00F029B4BF8054FEA271458
:103AD00003EBC20393ED007B8DED067B16D5974B70
:103AE00004F00F040326D3E90823DDE90C0101F0FB
:103AF00043FECDE90401914D54B9DDE90623DDE92A
:103B0000040101F039FECDE9040128E00226F2E7C4
:103B1000E10708D50136DDE90601D5E9002301F00A
:103B200001FDCDE9060164100835E5E700F0AF803E
:103B30007C42814B814D022604F00F02241103EBDD
:103B4000C203DDE90C01D3E9002301F0EBFC002303
:103B5000CDE90401002C40F08F80002BD3D1129BC3
:103B6000DDE90445002B00F094800022744B2046D0
:103B7000294601F049FF002800F08B80039B002BB1
:103B800000F08780009B002B34DD7B1E2046002246
:103B90002946069301366B4B01F0C4FC009CCDE92D
:103BA0000401304601F054FCDDE9042301F0BAFCC5
:103BB0000022654B01F000FB0546A1F15076002C78
:103BC0006AD10022614BDDE9040101F0F3FA0246FB
:103BD0000B46CDE904232A46334601F033FF002883
:103BE00040F087822A4606F10043DDE9040101F036
:103BF0000BFF38BBDDE90C34CDE90434179B002BF7
:103C0000C0F258810E2F00F355814B4B03EBC703D5
:103C100093ED007B0E9B002B8DED007B80F2E58009
:103C2000039B002B00F3E1800CD10022474B51ECA9
:103C3000170B01F077FCDDE9042301F0F9FE002801
:103C400000F05582002425460E9B5646DB43069322
:103C500000272146584600F0B1FC002D00F0BD8041
:103C60002FB1AF4203D03946584600F0A7FC294691
:103C7000584600F0A3FCB0E0E20705D50136D5E9CF
:103C8000002301F04FFC01236410083562E702268F
:103C900065E7039C069784E7274B0B9903EBC40366
:103CA000544453E90223002954D00020284901F04C
:103CB00063FD334656462A4601F07CFACDE91001F1
:103CC000DDE9040101F0DEFE054601F0C1FB02461C
:103CD0000B463035DDE9040101F06CFA02460B4673
:103CE00006F8015BCDE90423DDE9102301F08CFE29
:103CF000002872D100201249DDE9042301F05AFAAC
:103D0000DDE9102301F080FE002840F0B480A642D7
:103D10003FF470AF00220B4BDDE9100101F002FC13
:103D20000022084BCDE91001DDE9040101F0FAFBA6
:103D3000CDE90401C4E700BFC87C0000A07C0000FE
:103D40000000F03F0000244000001C400000144030
:103D50000000E03F31465646284601F0E3FB15944B
:103D6000CDE91001DDE9040101F08CFE054601F00A
:103D70006FFB024630350B46DDE9040101F01AFA0B
:103D800006F8015B02460B46A642CDE904234FF03C
:103D9000000224D1AB4BDDE9100101F00DFA02461F
:103DA0000B46DDE9040101F04DFE002863D100203F
:103DB000A449DDE9102301F0FDF902460B46DDE9D7
:103DC000040101F021FE00283FF414AF159E731E7C
:103DD000159316F8013C302BF8D0069F3BE09A4B28
:103DE00001F0A0FBCDE90401BCE7DDE9044556463E
:103DF00020462946DDE9002301F0BEFC01F042FE29
:103E0000804601F025FBDDE9002301F08BFB024633
:103E1000204608F130040B46294601F0CBF9039DFA
:103E200006F8014BA6EB0A0402460B46A54234D124
:103E300001F0C2F904460D46DDE9002301F002FE5F
:103E4000C0B920462946DDE9002301F0D3FD10B1B9
:103E500018F0010F0ED14946584600F0AFFB002381
:103E600001373370139B1F60239B002B00F03C82B3
:103E70001E6039E2069733461E4613F8012D392A93
:103E800007D19A45F8D1069A0132069230228AF873
:103E900000201A7801321A709FE700226A4B01F065
:103EA00041FB0022002304460D4601F0A3FD00283B
:103EB0009ED0D0E70B9A002A00F0E180099A012AEF
:103EC00000F3C480149A002A00F0B78003F2334351
:103ED0000A9C4646089A0121584698441A4408927A
:103EE00000F022FC05465EB1089B002B08DDB342C2
:103EF000089AA8BF3346A8EB0308F61AD31A08930A
:103F00000A9BF3B10B9B002B00F0BD808CB12946BE
:103F10002246584600F0C2FC4A460146054658462D
:103F200000F018FC49460690584600F047FB069BF7
:103F300099460A9B1A1B04D04946584600F0AEFC2D
:103F400081460121584600F0EFFB0F9B0446002BF1
:103F500000F0CE811A460146584600F09FFC099BAE
:103F60000446012B00F39580049B002B40F08D80CC
:103F7000059BC3F31303002B40F08980059B23F0BE
:103F800000431B0D1B052BB1089B08F101080133F1
:103F9000089301230A930F9B002B00F0AF81236944
:103FA00004EB8303186900F073FBC0F12000089B49
:103FB000184410F01F0077D0C0F12003042B6BDDF4
:103FC000C0F11C00089B8044034406440893B8F1E8
:103FD000000F05DD49464246584600F0B9FC8146CF
:103FE000089B002B05DD21461A46584600F0B0FC20
:103FF0000446129B002B59D02146484600F014FD80
:10400000002853DA7B1E49460A22584606930023AD
:1040100000F0F6FA0B9B8146002B00F07181002323
:1040200029460A22584600F0EBFA009B0546002B71
:1040300067DC099B022B41DC63E0169BC3F136036E
:1040400046E700BF0000E03F00002440039B5C1EE9
:104050000A9BA34209DB1C1B039B002BBFF639AF55
:10406000039BA8EB0306002334E70A9B46460F9AFE
:10407000E31A0A9400241A44039B0F922AE70A9C2D
:1040800046460B9D2FE70A9A56E7002382E7049BDA
:1040900080E700230A9382E799D01C33089A1A44D8
:1040A00098441E44089292E70346F6E7039B06975E
:1040B000002B20DC0093099B022B1EDD009B002BB4
:1040C0007FF4C2AD21460522584600F099FA014618
:1040D0000446484600F0A8FC00287FF7B5AD312320
:1040E000564606F8013B069B01330693B0E5039C58
:1040F00006972546F3E7039B00930B9B002B00F0EC
:104100000381002E05DD29463246584600F020FC8A
:1041100005460A9B002B5AD06968584600F00EFAF3
:10412000064628B9834B024640F2EF21FFF75FBBFA
:104130002A6905F10C010C3002329200FFF79DFA5A
:1041400001223146584600F003FC0AF101032F46D4
:1041500005460393009B53440B93049B03F0010318
:104160000A93039B21464846013B0093FFF79AFAC6
:104170003946049000F13008484600F055FC2A46C4
:1041800008902146584600F06BFCC268064602BB08
:104190000146484600F048FC0246314658460E9219
:1041A00000F00CFA099B0E9A039E42EA03010A9B57
:1041B000194310D1B8F1390F29D0089B002B02DD2B
:1041C000049B03F13108009B83F8008041E52846F9
:1041D000BBE70122E1E7089B002B04DB09990B43B5
:1041E0000A990B4320D1002AEDDD494601225846A9
:1041F00000F0AEFB2146814600F016FC002803DCEF
:10420000E1D118F0010FDED0B8F1390FD8D1392340
:10421000009A137033461E46013B16F8012C392ACA
:1042200051D001321A7014E5002A07DDB8F1390FB8
:10423000EDD008F10103009A13700AE5039B0B9A75
:1042400003F8018C934228D0494600230A2258469D
:1042500000F0D6F9AF4281464FF000034FF00A025A
:104260003946584607D100F0CBF907460546039B6F
:104270000133039375E700F0C3F92946074600238D
:104280000A22584600F0BCF90546F0E7009B0027DB
:10429000002BCCBF1E4601265644494601225846F3
:1042A00000F056FB2146814600F0BEFB0028B1DC41
:1042B00002D118F0010FADD133461E4613F8012D7F
:1042C000302AFAD0C5E49A45A5D1069B013306935E
:1042D00031238AF80030BCE4239BDFF85CA01BB1DB
:1042E0000AF10803239A1360504619B0BDE8F08F15
:1042F000099B012B7FF738AE0F9B0A93012056E6EE
:10430000009B002B7FF7D7AE564621464846FFF765
:10431000C9F900F13008009B06F8018BA6EB0A02F0
:104320009342B3DD494600230A22584600F068F95B
:104330008146EAE7097C00008C7B000038B5054621
:10434000002941D051F8043C0C1F002BB8BFE418E1
:1043500000F0E8F81D4A136833B96360146028461A
:10436000BDE8384000F0E4B8A34208D9206821181D
:104370008B4201BF19685B6809182160EDE71A4696
:104380005B680BB1A342FAD911685018A0420BD157
:1043900020680144501811608342E0D118685B68BE
:1043A000084453601060DAE702D90C232B60D6E78B
:1043B000206821188B4202BF19685B680918636086
:1043C00008BF21605460CAE738BD00BFA40A0020BE
:1043D000024B0146186800F025B800BFD00100204C
:1043E00070B50F4E0C460546316811B900F09AFEC3
:1043F00030602146284600F095FE431C03D14FF063
:10440000FF34204670BDC41C24F00304A042F8D041
:10441000211A284600F086FE0130F2D1EFE700BFF6
:10442000A00A00202DE9F843CD1C064625F003051F
:1044300008350C2D38BF0C25002D01DBA94204D90D
:104440000C2333600020BDE8F883DFF8D48000F04F
:1044500069F8D8F800301C4644BB29463046FFF7BF
:10446000BFFF431C044658D1D8F800402746002F10
:1044700043D1002C4BD023683946304604EB030966
:1044800000F050FE814542D1216830466D1A294620
:10449000FFF7A6FF01303AD023682B442360D8F8F9
:1044A00000305A6862BBC8F800700FE02268521BE7
:1044B00020D40B2A17D96119A342256018BF59606F
:1044C000636808BFC8F8001062514B60304600F0C6
:1044D0002FF804F10B00231D20F00700C21A1CBFA7
:1044E0001B1AA350AFE76268A3420CBFC8F80020B4
:1044F0005A60EBE723466468AEE73C467F68B6E760
:104500001A465B68A342FBD100235360DEE70C230D
:104510003046336000F00CF894E70560D6E700BF42
:10452000A40A00200148FFF798B800BF9C0A0020A9
:104530000148FFF793B800BF9C0A002070B5C66918
:1045400004460D4676B91020FFF742FF0246E061AF
:1045500020B9184B6B211848FEF736F8C0E9016600
:104560000660C660E669F36883B1E369DB6853F807
:104570002500B8B90121204601FA05F6721D920006
:1045800000F0E0FD60B1C0E901560EE021220421F7
:10459000204600F0D7FDE369F060DB68002BE4D132
:1045A000002070BD026843F825200023C0E90333D2
:1045B000F7E700BF997B00001A7C000070B5C66960
:1045C00005460C4676B91020FFF702FF0246E86167
:1045D00020B9094B8F210948FDF7F6FFC0E90166B4
:1045E0000660C6603CB1EB696268DB6853F8221074
:1045F000216043F8224070BD997B00001A7C0000C6
:104600002DE9F04101F1140C07460C461E460D69D8
:104610000020DCF80030013099B2854202FB0161D4
:104620004FEA13464FEA114389B202FB063301EB0E
:1046300003414FEA13464CF8041BEADC0EB3A368AF
:10464000AB4219DC616838460131FFF777FF8046DD
:1046500028B902460C4BBA210C48FDF7B5FF226978
:1046600004F10C010C3002329200FFF706F82146EB
:1046700044463846FFF7A2FF04EB850301355E612F
:1046800025612046BDE8F081097C00001A7C00000D
:10469000B0F5803F034636BF030400201020B3F17D
:1046A000807F3CBF1B020830B3F1805F3CBF1B0121
:1046B0000430B3F1804F3CBF9B000230002B05DB80
:1046C00013F0804F00F1010008BF202070470368FD
:1046D000024613F007000BD0D90721D4980747BF33
:1046E0005B0801209B0802204CBF136013607047D9
:1046F00099B209B91B0C1020D9B209B908301B0AAC
:10470000190704BF1B090430990704BF9B08023036
:10471000D90703D45B0800F1010003D01360704790
:10472000002070472020704710B50C460121FFF78C
:1047300005FF024628B9054B40F245110448FDF734
:1047400043FF01234461036110BD00BF097C0000E9
:104750001A7C00002DE9F04F17460A69894685B09A
:104760003B699A42A2BF3B460F4699463D69BB68EA
:10477000D9F810A0796805EB0A06B342B8BF013139
:10478000FFF7DCFE30B90246424B4FF4B1714248AC
:10479000FDF71AFF00F11404002204EB860E2346F5
:1047A000734520D307F1140809F1140108EB8505BE
:1047B00001EB8A030293EB1B1537153B23F0030330
:1047C0000433BD4238BF04230193029B03918B4203
:1047D0000CD8002E03DD5EF8043D002B57D0066197
:1047E00005B0BDE8F08F43F8042BD9E7B1F800A07D
:1047F000BAF1000F21D0C446A14600275CF8042B73
:10480000D9F800301FFA82FB65459BB24FEA12428D
:104810000AFB0B333B44D9F800704FEA17470AFBF9
:10482000027202EB13429BB24FEA124743EA024381
:1048300049F8043BE2D8019BE750039B0431B3F8ED
:104840000290B9F1000F20D023684746A4464FF0EC
:10485000000AB7F800B09BB2BCF8022009FB0B229B
:10486000524443EA02434CF8043B57F8043B4FEAF6
:10487000134ABCF80030BD4209FB0A3303EB124374
:104880004FEA134AE5D8019AA35004349DE7013E4C
:104890009FE700BF097C00001A7C00002DE9F84367
:1048A000154612F0030207460E4607D0013A254C82
:1048B000002354F82220FFF7A3FE0646AD103DD09A
:1048C000FC697CB91020FFF783FD0246F86128B926
:1048D0001D4B40F2B3111D48FDF776FEC0E90144BF
:1048E0000460C460D7F81C80D8F808404CB940F286
:1048F00071213846FFF718FF00230446C8F8080066
:1049000003604FF00009EB070AD5314622463846CE
:10491000FFF720FF8046314638464646FFF74EFEF9
:104920006D100BD0206838B9224621463846FFF773
:1049300011FF2060C0F800900446E4E73046BDE86F
:10494000F88300BF907C0000997B00001A7C000077
:104950002DE9F0470C46074691464FEA621A236953
:10496000496803EB6218A36808F10106B3420BDB48
:104970003846FFF7E3FD054648B90246284B4FF499
:10498000EF712848FDF720FE01315B00EEE70023C0
:1049900000F1140100F110021846534533DB2AEAF6
:1049A000EA7A04F11403206919F01F0901EB8A0166
:1049B00003EB800C2BD0C9F1200E8A460022186828
:1049C00000FA09F010434AF8040B53F8042B9C45F5
:1049D00022FA0EF2F3D8ACEB040304F11500153BF8
:1049E00023F003030433604588BF0423CA500AB18F
:1049F00008F10206013E384621462E61FFF7DEFD32
:104A00002846BDE8F087013342F8040FC5E70439B2
:104A100053F8042B9C4541F8042FF9D8EAE700BF6E
:104A2000097C00001A7C000003460A690069801AAC
:104A300030B50ED11433143103EB820401EB820143
:104A400054F8045D51F8042D954203D005D24FF07F
:104A5000FF3030BDA342F3D3FBE70120F9E7FFFFAE
:104A60002DE9F74F89460646114614464846FFF79A
:104A7000DBFF051E12D129463046FFF75FFD0246D7
:104A800028B9414B40F237214048FDF79DFD0123F5
:104A9000C0E90435104603B0BDE8F08FBCBF4B46FB
:104AA000A1463046B8BF0125D9F80410B4BF1C4652
:104AB0000025FFF743FD024618B9334B40F245216C
:104AC000E2E7D9F8107004F1140E266900F1140B16
:104AD000C56009F1140509F110030EEB860605EB1C
:104AE0008708D9464FF0000C0193019B5EF8040B38
:104AF00053F804AF764501931FFA8AF3194683B23F
:104B00004FEA1040A1EB0303C0EB1A40634400EBF3
:104B100023409BB24FEA204C43EA004349F8043B50
:104B2000E3D8331B1534153B23F003030433A642AB
:104B300038BF04231D445B442C461E4644450ED317
:104B400008F10301491B033D21F00301A84538BFCB
:104B500000210B4453F8041D99B117619AE754F8EA
:104B6000041BE6461FFA81FC080C7144F44489B228
:104B700000EB2C4041EA00414FEA204C46F8041B70
:104B8000DCE7013FE6E700BF097C00001A7C00007B
:104B90002DE9F7430F460121164659EC108BFFF71C
:104BA000CDFC044630B90246234B40F20F31234876
:104BB000FDF70AFDC9F30A55C9F313030DB143F418
:104BC00080130193B8F1000323D068460093FFF7E8
:104BD0007EFDDDE90012D0B1C0F1200302FA03F33B
:104BE000C2400B4301926361019B002BA3610CBF88
:104BF000012202222261A5B1A5F233450544C0F18C
:104C000035003D603060204603B0BDE8F08361614F
:104C1000EAE701A8FFF75BFD019B203001226361F9
:104C2000E8E7A0F2324004EB820338601869FFF72E
:104C30002FFDC0EB4210E5E7097C00001A7C000064
:104C40009368013B002B936010B408DA9469A34287
:104C500001DB0A2903D15DF8044BFEF710BC136891
:104C6000581C1060084619705DF8044B7047F8B581
:104C700006460F461446D518AC4201D1002007E085
:104C80003A4614F8011B3046FFF7DAFF431CF3D114
:104C9000F8BDFFFF2DE9F04F0D469DB01446984634
:104CA000064618B1036A0BB9FEF700FB6B6ED90715
:104CB00005D4AB899A0502D4A86DFEF7CEFCAB896A
:104CC0001B0701D52B699BB929463046FEF716FC18
:104CD00070B16B6EDC0704D54FF0FF301DB0BDE83E
:104CE000F08FAB899805F7D4A86DFEF7B7FCF3E712
:104CF0000023CDF80C804FF00109DFF8B48109934F
:104D000020238DF8293030238DF82A3023469A4607
:104D100013F8012B0AB1252AF9D1BAEB040B0BD0F9
:104D20005B46224629463046FFF7A1FF013000F0DE
:104D3000A780099A5A4409929AF80030002B00F093
:104D40009F8000234FF0FF320AF1010A049307937A
:104D50008DF853301A93CDE9052354460522544863
:104D600014F8011BFEF77BFC049AD8B9D10644BFA6
:104D700020238DF85330130744BF2B238DF8533075
:104D80009AF800302A2B15D0079A544600204FF08D
:104D90000A0C214611F8013B303B092B4BD9B0B12D
:104DA000079214E0A0EB0803A24609FA03F31343A9
:104DB0000493D2E7039B191D1B68002B0391BBBF13
:104DC0005B4242F0020207930793B8BF0492237834
:104DD0002E2B0AD163782A2B32D1039B02341A1D61
:104DE0001B6843EAE37303920593DFF8D4A0032220
:104DF00021785046FEF733FC38B1A0EB0A00402280
:104E0000049B013482401343049314F8011B0622CF
:104E100028488DF82810FEF722FC00283FD0264BAA
:104E20001BBB039B073323F0070308330393099B42
:104E30003B4409936AE70CFB02320C460120A8E7C9
:104E4000002301344FF00A0C19460593204610F850
:104E5000012B303A092A03D9002BC6D00591C4E7AB
:104E60000CFB012104460123F0E703AB2A4604A909
:104E700030460093114BFDF7D3FD0746781CD6D181
:104E80006B6ED90705D4AB899A0502D4A86DFEF7DD
:104E9000E5FBAB895B063FF51FAF09981EE703AB47
:104EA0002A4604A930460093044BFEF755F8E4E780
:104EB000747C00007E7C0000212A00006F4C000002
:104EC0007A7C0000B1F90C202DE9F0411607054667
:104ED0000C4654D44B68002B02DC0B6C002B48DDD5
:104EE000E66A002E45D0002312F480522F68216A12
:104EF0002B6030D0626DA389590705D56368D21A3B
:104F0000636B0BB1236CD21A0023E66A216A284630
:104F1000B047431CA38906D129681D292BD82A4AEA
:104F2000CA40D60727D50022D904626022692260D0
:104F300004D5421C01D12B6803B96065616B2F60F9
:104F4000B9B104F14403994202D02846FFF7F6F9BB
:104F5000002363630DE001232846B0470246501C3E
:104F6000C9D12B68002BC6D01D2B01D0162B1DD10B
:104F70002F60002021E043F040031BB21AE00F69CC
:104F8000002FF6D093070E680F600CBF4B6900230B
:104F9000A6EB07088B60B8F1000FEADD43463A46FE
:104FA000216A2846A66AB047002808DCB4F90C300C
:104FB00043F040034FF0FF30A381BDE8F081074488
:104FC000A8EB0008E7E700BF0100402038B50B69F7
:104FD00005460C4613B90025284638BD18B1036AAA
:104FE0000BB9FEF763F9B4F90C30002BF3D0626E05
:104FF000D00704D4990502D4A06DFEF72EFB2846F5
:105000002146FFF75FFF636E0546DA07E4D4A38904
:105010009B05E1D4A06DFEF721FBDDE770B50C46E2
:10502000B1F90E1096B0154600291E460CDAA38978
:10503000002113F0800F14BF40234FF48063002041
:1050400031602B6016B070BD6A4600F049F8002848
:10505000EDDB019901F47041A1F50053594259412A
:105060004FF48063EBE78B89F7B59D0706460C4646
:1050700007D504F14703236023610123636103B073
:10508000F0BD01AB6A46FFF7C9FF009F05463046F9
:105090003946FFF7C7F948B9B4F90C309A05EED490
:1050A00023F0030343F00203A381E2E7A389206016
:1050B00043F08003A381019BC4E904075BB1B4F909
:1050C0000E10304600F01EF828B1A38923F0030328
:1050D00043F00103A381A3891D43A581CFE7FFFF0F
:1050E00038B50023064D0446084611462B6000F0F3
:1050F000F9FC431C02D12B6803B1236038BD00BF0B
:10510000980A002038B50023054D044608462B6058
:1051100000F0F0FC431C02D12B6803B1236038BDC2
:10512000980A002038B50023054D044608462B6038
:10513000FDF740FB431C02D12B6803B1236038BD4F
:10514000980A002070B5A1FB025434B92946FFF734
:1051500069F9064628B9304670BD0C220026026067
:10516000F9E72A462146FEF71FFAF4E782B001B9B3
:1051700001A942B14BB113780B601278101E18BF11
:10518000012002B070471046FBE76FF00100F8E71E
:105190000346084641B1FF2A04D98A224FF0FF3066
:1051A0001A60704701200A707047FFFF81F00041CC
:1051B00002E000BF83F0004330B54FEA41044FEAFC
:1051C000430594EA050F08BF90EA020F1FBF54EA97
:1051D000000C55EA020C7FEA645C7FEA655C00F033
:1051E000E2804FEA5454D4EB5555B8BF6D420CDD04
:1051F0002C4480EA020281EA030382EA000083EA87
:10520000010180EA020281EA0303362D88BF30BD26
:1052100011F0004F4FEA01314FF4801C4CEA11317C
:1052200002D0404261EB410113F0004F4FEA0333DB
:105230004CEA133302D0524263EB430394EA050F66
:1052400000F0A780A4F10104D5F1200E0DDB02FAD5
:105250000EFC22FA05F2801841F1000103FA0EF269
:10526000801843FA05F359410EE0A5F120050EF12F
:10527000200E012A03FA0EFC28BF4CF0020C43FA60
:1052800005F3C01851EBE37101F0004507D54FF06D
:10529000000EDCF1000C7EEB00006EEB0101B1F5BD
:1052A000801F1BD3B1F5001F0CD349085FEA300003
:1052B0004FEA3C0C04F101044FEA445212F5800F0E
:1052C00080F09A80BCF1004F08BF5FEA500C50F1AB
:1052D000000041EB045141EA050130BD5FEA4C0C8E
:1052E000404141EB0101013C28BFB1F5801FE9D2EB
:1052F00091F0000F04BF01460020B1FA81F308BF0E
:105300002033A3F10B03B3F120020CDA0C3208DDD9
:1053100002F1140CC2F10C0201FA0CF021FA02F1B4
:105320000CE002F11402D8BFC2F1200C01FA02F124
:1053300020FA0CFCDCBF41EA0C019040E41AA2BF49
:1053400001EB0451294330BD6FEA04041F3C1CDA11
:105350000C340EDC04F11404C4F1200220FA04F031
:1053600001FA02F340EA030021FA04F345EA0301DB
:1053700030BDC4F10C04C4F1200220FA02F001FA9D
:1053800004F340EA0300294630BD21FA04F029461F
:1053900030BD94F0000F83F4801306BF81F48011B8
:1053A0000134013D4EE77FEA645C18BF7FEA655C2B
:1053B00029D094EA050F08BF90EA020F05D054EAFD
:1053C000000C04BF1946104630BD91EA030F1EBF02
:1053D0000021002030BD5FEA545C05D14000494106
:1053E00028BF41F0004130BD14F580043CBF01F5F9
:1053F000801130BD01F0004545F0FE4141F47001DF
:105400004FF0000030BD7FEA645C1ABF19461046B9
:105410007FEA655C1CBF0B46024650EA013406BFBA
:1054200052EA033591EA030F41F4002130BD00BF79
:1054300090F0000F04BF0021704730B54FF4806436
:1054400004F132044FF000054FF0000150E700BFB7
:1054500090F0000F04BF0021704730B54FF4806416
:1054600004F1320410F0004548BF40424FF0000103
:105470003EE700BF42004FEAE2014FEA31014FEA46
:1054800002701FBF12F07F4393F07F4F81F0605195
:10549000704732F07F4208BF704793F07F4F04BFE0
:1054A00041F40021704730B54FF4607401F00045BD
:1054B00021F000411CE700BF50EA010208BF70471D
:1054C00030B54FF000050AE050EA010208BF70470E
:1054D00030B511F0004502D5404261EB41014FF477
:1054E000806404F132045FEA915C3FF4D8AE4FF07F
:1054F00003025FEADC0C18BF03325FEADC0C18BF62
:10550000033202EBDC02C2F1200300FA03FC20FAB2
:1055100002F001FA03FE40EA0E0021FA02F11444FF
:10552000BDE600BF70B54FF0FF0C4CF4E06C1CEA18
:1055300011541DBF1CEA135594EA0C0F95EA0C0F89
:1055400000F0DEF82C4481EA030621EA4C5123EAFC
:105550004C5350EA013518BF52EA033541F480112B
:1055600043F4801338D0A0FB02CE4FF00005E1FBDE
:1055700002E506F00042E0FB03E54FF00006E1FB28
:1055800003569CF0000F18BF4EF0010EA4F1FF046B
:10559000B6F5007F64F5407404D25FEA4E0E6D41AB
:1055A00046EB060642EAC62141EA55514FEAC520BC
:1055B00040EA5E504FEACE2EB4F1FD0C88BFBCF538
:1055C000E06F1ED8BEF1004F08BF5FEA500E50F1E9
:1055D000000041EB045170BD06F0004646EA0101AF
:1055E00040EA020081EA0301B4EB5C04C2BFD4EBE1
:1055F0000C0541EA045170BD41F480114FF0000EDA
:10560000013C00F3AB8014F1360FDEBF002001F047
:10561000004170BDC4F10004203C35DA0C341BDCC1
:1056200004F11404C4F1200500FA05F320FA04F093
:1056300001FA05F240EA020001F0004221F00041C7
:1056400010EBD37021FA04F642EB06015EEA430E3A
:1056500008BF20EAD37070BDC4F10C04C4F120056A
:1056600000FA04F320FA05F001FA04F240EA02001D
:1056700001F0004110EBD37041F100015EEA430EEE
:1056800008BF20EAD37070BDC4F1200500FA05F20E
:105690004EEA020E20FA04F301FA05F243EA02038D
:1056A00021FA04F001F0004121FA04F220EA02009C
:1056B00000EBD3705EEA430E08BF20EAD37070BDE2
:1056C00094F0000F0FD101F00046400041EB0101C2
:1056D00011F4801F08BF013CF7D041EA060195F0A4
:1056E000000F18BF704703F00046520043EB03035E
:1056F00013F4801F08BF013DF7D043EA060370474B
:1057000094EA0C0F0CEA135518BF95EA0C0F0CD055
:1057100050EA410618BF52EA4306D1D181EA03019B
:1057200001F000414FF0000070BD50EA410606BF95
:105730001046194652EA430619D094EA0C0F02D1DA
:1057400050EA013613D195EA0C0F05D152EA03361F
:105750001CBF104619460AD181EA030101F000413D
:1057600041F0FE4141F470014FF0000070BD41F086
:10577000FE4141F4780170BD70B54FF0FF0C4CF460
:10578000E06C1CEA11541DBF1CEA135594EA0C0F7F
:1057900095EA0C0F00F0A7F8A4EB050481EA030ECC
:1057A00052EA03354FEA013100F088804FEA0333B3
:1057B0004FF0805545EA131343EA12634FEA022281
:1057C00045EA111545EA10654FEA00260EF0004142
:1057D0009D4208BF964244F1FD0404F5407402D294
:1057E0005B084FEA3202B61A65EB03055B084FEA25
:1057F00032024FF480104FF4002CB6EB020E75EB22
:10580000030E22BFB61A754640EA0C005B084FEA49
:105810003202B6EB020E75EB030E22BFB61A7546C6
:1058200040EA5C005B084FEA3202B6EB020E75EB11
:10583000030E22BFB61A754640EA9C005B084FEA89
:105840003202B6EB020E75EB030E22BFB61A754696
:1058500040EADC0055EA060E18D04FEA051545EA85
:1058600016754FEA06164FEAC30343EA52734FEA2E
:10587000C2025FEA1C1CC0D111F4801F0BD141EAA7
:1058800000014FF000004FF0004CB6E711F4801F0C
:1058900004BF01430020B4F1FD0C88BFBCF5E06FEC
:1058A0003FF6AFAEB5EB030C04BFB6EB020C5FEAFC
:1058B000500C50F1000041EB045170BD0EF0004E51
:1058C0004EEA113114EB5C04C2BFD4EB0C0541EA83
:1058D000045170BD41F480114FF0000E013C90E680
:1058E00045EA060E8DE60CEA135594EA0C0F08BF44
:1058F00095EA0C0F3FF43BAF94EA0C0F0AD150EA43
:1059000001347FF434AF95EA0C0F7FF425AF1046D5
:1059100019462CE795EA0C0F06D152EA03353FF4FD
:10592000FDAE1046194622E750EA410618BF52EA7A
:1059300043067FF4C5AE50EA41047FF40DAF52EA4E
:1059400043057FF4EBAE12E74FF0FF3C06E000BFEB
:105950004FF0010C02E000BF4FF0010C4DF804CDF8
:105960004FEA410C7FEA6C5C4FEA430C18BF7FEAB8
:105970006C5C1BD001B050EA410C0CBF52EA430CE6
:1059800091EA030F02BF90EA020F0020704710F166
:10599000000F91EA030F58BF994208BF90422CBFF5
:1059A000D8176FEAE37040F0010070474FEA410CEE
:1059B0007FEA6C5C02D150EA013C07D14FEA430C0C
:1059C0007FEA6C5CD6D152EA033CD3D05DF8040B7D
:1059D000704700BF8446104662468C4619466346AF
:1059E00000E000BF01B5FFF7B7FF002848BF10F186
:1059F000000F01BD4DF808EDFFF7F4FF0CBF0120CB
:105A000000205DF808FB00BF4DF808EDFFF7EAFF46
:105A100034BF012000205DF808FB00BF4DF808ED01
:105A2000FFF7E0FF94BF012000205DF808FB00BFF6
:105A30004DF808EDFFF7CEFF94BF012000205DF880
:105A400008FB00BF4DF808EDFFF7C4FF34BF01208D
:105A500000205DF808FB00BF4FEA410C7FEA6C5C58
:105A600002D150EA013C0AD14FEA430C7FEA6C5C58
:105A700002D152EA033C02D14FF0000070474FF0D0
:105A8000010070474FEA410212F5001215D211D5FC
:105A90006FF47873B3EB625212D94FEAC12343F02B
:105AA000004343EA505311F0004F23FA02F018BFAD
:105AB000404270474FF00000704750EA013005D176
:105AC00011F0004008BF6FF0004070474FF0000039
:105AD000704700BF024B58224FF0FF301A607047EA
