S01B00005241344D325F4D494E495F50726F6A656374362E73726563CB
S31500000000B00400204D080000F10600004908000079
S315000000104908000049080000490800004908000096
S315000000200000000000000000000000004908000079
S3150000003049080000000000004908000049080000C7
S31500000040050400000348044B834202D0034B03B16E
S315000000501847704708000020080000200000000034
S31500000060064B0749C91A891048BF0131491003D008
S31500000070044B0BB101481847704700BF0800002029
S31500000080080000200000000010B5064C237843B994
S31500000090FFF7D8FF044B13B10448AFF300800123E8
S315000000A0237010BD2800002000000000580A000040
S315000000B008B5054B1BB105490548AFF30080BDE8FF
S315000000C00840FFF7CDBF00BF000000002C00002055
S315000000D0580A0000024A137883F001031370704730
S315000000E04400002038B51449144800F029F928B115
S315000000F01821134B134A144800F0C6FA0F4800F0B3
S315000001005FF990B9114D124C2A7842B1012240F2A2
S315000001100B11204600F030F82A78002AF6D140F27A
S315000001200B11204600F028F8EEE71B21044B054A88
S31500000130054800F0A9FA00BF000A000050000020A0
S31500000140CC090000F4090000E0090000440000208A
S3150000015048000020022800D070470249024800F0FB
S31500000160E5B800BF180A00004800002008B5FFF7F0
S31500000170B9FF002008BD00BF0120CBB2984080B275
S3150000018002B900040B0A5B0103F1804303F5002367
S3150000019098600020704700BF2DE9F84F0388DBB157
S315000001A082464FF0000B4FF00109DFF8D0800024A3
S315000001B0304D4FEACB07DAF8043035F8022BD9195F
S315000001C0898891420AD00134032CF4D1BAF8003060
S315000001D00BF1010B5B45EAD8BDE8F88FDB5909FA4C
S315000001E004F603F0B853B3F1807FF6B298F8BB3447
S315000001F013D0334231D1204A04F1200612F81630CA
S31500000200DB09E0D012F81630012123F08003C82064
S3150000021002F8163000F040FAD5E7334211D0164AFC
S3150000022004F1200112F81130DB09CCD112F811309B
S31500000230C82043F0800302F81130012100F02CFAA7
S31500000240C1E7012000F0D6FA98F8BB340120334309
S3150000025088F8BB3400F09EFAE1E7012000F0CAFA04
S3150000026098F8BB34012023EA060388F8BB3400F073
S3150000027091FAC0E7480A00000030084000E001405B
S31500000280F8B50646FFF788FFEFF31082012383F3E4
S315000002901088234F3B681BB92249CB704023CB7093
S315000002A03B6801333B6082F31088338823B3002117
S315000002B01D4D08E01B01134445F8234032880131E7
S315000002C08BB29A4218D9736853F8314003EBC102D6
S315000002D09288E0034FEA1223D2B2EBD502EB031069
S315000002E055F820E024F4803C2EF4803E45F820E0CA
S315000002F01B0145F820C0DEE7EFF31082012383F3EC
S3150000030010883B6813B13B68013B3B603B681BB9F7
S3150000031080200449CB70C87082F31088F8BD00BFF6
S3150000032098000020000D08400008084008B5034B5F
S3150000033003600846FFF7A4FF002008BD54524F5043
S3150000034070B40025034691F902201A4C02719200FE
S3150000035002F1804202F5C042D2F80063C2F80053AF
S315000003608A688260CA68C2600878587125540D7917
S31500000370CA7842EA05124D7942EAC512D2B222542F
S3150000038093F90420C03244F8226093F9040000284F
S315000003900BDB4A78084C120100F16041D2B201F53C
S315000003A0614181F8002344F82030044A00201A6095
S315000003B070BC7047006000409C0000205543490017
S315000003C090F904200E4B02F1C00153F8210020F4ED
S315000003D0803043F8210053F82130BFF35F8F0121AD
S315000003E053099B0002F01F0203F1604303F56143CA
S315000003F001FA02F2C3F880211A600020704700BF9C
S315000004000060004010B582B0EFF30384184B103C37
S3150000041064B253F82410174A4879135C03F00303B7
S31500000420032B12D0C03452F8243023F4803342F820
S31500000430243052F824308B682BB14879CA68CDE94C
S3150000044000206846984702B010BD8B6823B1CA6881
S31500000450CDE9002068469847064BC03453F824205F
S3150000046022F4803243F8242053F8243002B010BD21
S315000004709C00002000600040064B074993F82600C8
S315000004801A6A51F82030C2F302620449D3400B6065
S31500000490704700BF00E0014008000020A8000020CF
S315000004A0704700BFF8B54AF2035001233F49404A5E
S315000004B0A1F8FE03A2F80431B2F804319BB2002B76
S315000004C0FAD14FF0010C4FF4004120250920394C98
S315000004D0394F3A4E67603A4F344BE760A2F800C195
S315000004E0384A2660A1602161626193F82620196A64
S315000004F054F82220344EC1F30261CA40326083F8B8
S31500000500135483F8A20093F880241AB993F881341F
S31500000510990746D0254D95F88034002B36D0002219
S31500000520224B83F8812483F8802400231F4981F815
S31500000530323091F83C301A07FBD543F601300023E0
S315000005401A4A088581F82A3092F83C309B06FBD57A
S31500000550012005231649F12581F81C011B4911626A
S3150000056082F8263092F82630106A54F82310C0F329
S315000005700260C14031600024F0204FF42541144B45
S315000005801D731C721873A2F8FE13F8BD0121C82052
S3150000059085F8801400F080F895F88034012BFBD1A3
S315000005A0BDE74FF47A70FFF77BFFBEE700E001403E
S315000005B000C001400800002000127A00002D310121
S315000005C0001BB7000095BA0AA800002021120221DC
S315000005D00020004038B50025284C0121C82084F8A9
S315000005E0285000F059F884F8245094F82430002B51
S315000005F0FBD194F82430214943F0020384F82430D7
S3150000060091F82430C3F340009B07F9D41B4A81F8C4
S31500000610220092F8223003F0FF00002BF9D192F865
S315000006204030164960F3C71382F8403091F84030E5
S31500000630DB09FBD191F84200104A63F3C71081F839
S31500000640420092F84230DB09FBD192F844000B4994
S3150000065063F3C71082F8440091F84430C3F3C01422
S31500000660DB09F9D1012000F0C5F8054B012083F81C
S31500000670BB44BDE8384000F08DB800BF00300840EC
S3150000068000E00140704700BF00BEFEE7A0F1010098
S315000006900028FBD1704700BF4FF47A7310B400FBFB
S315000006A001F1114C114A2468B2FBF4F2A1FB0304D8
S315000006B03CB9B0FBF2F0800860B15DF8044BFFF77F
S315000006C0E5BF9200B1FBF2F1A1FB03132BB908467B
S315000006D00028F2D15DF8044B70474FF0FF3C5DF8FF
S315000006E0044B6046FFF7D2BFA800002000CA9A3B21
S315000006F070B500240B4B0C4EB3F82021B3F84051D3
S31500000700ADB2154025FA04F3DB0704D556F82430BC
S31500000710E0B203B1984701340E2CF3D1014BA3F894
S31500000720305170BD006000406000002010B503200D
S3150000073084B000F05FF84FF0FF326FF0FF01114810
S31500000740114B04889964CDE9012203921CB16FF024
S3150000075001031A4601930C490C4B0A67C3F8802221
S31500000760029A03204A67C3F88422039A8A67C3F869
S31500000770882200F00FF814B1054BC3F8004304B00B
S3150000078010BD00BF440A00000080004000E100E008
S3150000079000600040EFF31081012383F31088124BB1
S315000007A033F8102092B22AB133F81020013A92B2EF
S315000007B023F8102033F810309BB293B910B40B4ACB
S315000007C00B4CB2F8FE3334F810009BB243F42543C9
S315000007D023EA0003A2F8FE3381F310885DF8044B88
S315000007E0704781F310887047A000002000E00140A8
S315000007F0500A000030B4EFF31081012383F3108810
S315000008000E4A32F810309BB26BB90D4C0D4DB4F850
S31500000810FE3335F810C09BB243EA0C0343F425437C
S315000008209BB2A4F8FE3332F8103001339BB222F8A3
S31500000830103081F3108830BC704700BFA000002044
S3150000084000E00140500A000000BE704708B500F005
S3150000085003F8FFF78BFCFEE74FF4700270B52B4BE5
S315000008602B4CC3F8882000209C60FFF773FCFFF731
S3150000087019FE0120FFF76EFC2368A3F5806383F35E
S315000008800A882448244A0021121A00F055F8234801
S31500000890234A2449121A00F057F8234D234B5B1BB9
S315000008A0002B07DD00249E1055F8043B01349847C1
S315000008B0A642F9DCFFF7E0FDFFF78CFE0320FFF709
S315000008C099FF4FF6FF720024194B03201A825A82B1
S315000008D09A82DA821A835A839A83DA83FFF75AFF57
S315000008E00320FFF787FF134B03205C609C60DC60EE
S315000008F01C61FFF74FFF0220FFF72CFCFFF716FFE6
S315000009002046BDE87040FFF7BDBE00BF00ED00E029
S315000009100000000028000020AC000020000000209D
S31500000920080000205C0A00000000002004000020EF
S31500000930000D084000000E4002440346934200D1D9
S31500000940704703F8011BF9E70A44431E914200D1A0
S31500000950704710B511F8014B914203F8014FF9D1D8
S3150000096010BDFFFF4275696C742077697468205268
S31500000970656E6573617320416476616E636564209C
S31500000980466C657869626C6520536F667477617230
S3150000099065205061636B6167652076657273696F68
S315000009A06E20352E392E3000352E392E30000000BF
S315000009B000000905F8B500BFF8BC08BC9E467047A4
S315000009C0F8B500BFF8BC08BC9E4670474653505F5A
S315000009D053554343455353203D3D206572720000F5
S315000009E02E2E2F7372632F68616C5F656E74727939
S315000009F02E6300FF68616C5F656E74727900FFFF9D
S31500000A00060C000103000000D500000000000000F5
S31500000A10140A000000FFFFFF04000000240A000083
S31500000A20000000000040000000000000000001007F
S31500000A3008010000040000000B0100000000010096
S31500000A40000300000700FFFF020403040404FFFF85
S31100000A5001000200080010000000000079
S30D00000A5CB10000008900000052
S3150100A100FFFFFFFFFFFFFFFFFFFFFFFFFFFFFFFF58
S3090100A134FFFFFFFF24
S3150100A200FFFDFFFFFFFFFFFFFFFFFFFFFFFFFFFF59
S3150100A210FFFFFFFFFFFFFFFFFFFFFFFFFFFFFFFF47
S3150100A220FFFFFFFFFFFFFFFFFFFFFFFFFFFFFFFF37
S3150100A230FFFFFFFFFFFFFFFFFFFFFFFFFFFFFFFF27
S3150100A240FFFFFFFFFFFFFFFFFFFFFFFFFFFFFFFF17
S3150100A250FFFFFFFFFFFFFFFFFFFFFFFFFFFFFFFF07
S3150100A260FFFFFFFFFFFFFFFFFFFFFFFFFFFFFFFFF7
S3150100A270FFFFFFFFFFFFFFFFFFFFFFFFFFFFFFFFE7
S3150100A280F8F8FFFFFFFFFFFFFFFFFFFFFFFFFFFFE5
S3150100A290FFFFFFFFFFFFFFFFFFFFFFFFFFFFFFFFC7
S3150100A2A0FFFFFFFFFFFFFFFFFFFFFFFFFFFFFFFFB7
S3150100A2B0FFFFFFFFFFFFFFFFFFFFFFFFFFFFFFFFA7
S3150100A2C0FFFFFFFFFFFFFFFFFFFFFFFFFFFFFFFF97
S7050000084DA5
